:100000000C94290A0C94460A0C94460A0C94460A4D
:100010000C94460A0C94460A0C94460A0C94460A20
:100020000C94460A0C94460A0C94460A0C94460A10
:100030000C94460A0C94460A0C94460A0C94460A00
:100040000C94460A0C94460A0C94460A0C94460AF0
:100050000C94460A0C94460A0C94460A0C945726B3
:100060000C94460A0C94460A0C94460A0C94460AD0
:100070000C94460A0C94460A0C94460A0C94460AC0
:100080000C94A1260C94460A0C94460A0C94460A39
:100090000C94460A0C94460A0C94460A0C94460AA0
:1000A0000C94460A0C94460A0C94460A1B2A1F2AF2
:1000B000242A282A2D2A172A372A084AD73B3BCE3A
:1000C000016E84BCBFFDC12F3D6C74319ABD568357
:1000D0003DDA3D00C77F11BED9E4BB4C3E916BAA0F
:1000E000AABE000000803F05A84CCDB2D44EB9385E
:1000F00036A9020C50B9918688083CA6AAAA2ABE45
:10010000000000803F0040400DF8E8F0E8F0E8E033
:10011000F8E0F8E000E000F818F8180818081818D7
:10012000081010181018102800280018F020F820C7
:10013000F020F010E010E000E000E0F0F080360E7B
:10014000EBE51510EB1015E515F00BFB0BFB15059A
:10015000EB05F5FBF5FBEBF0F51BE005E005EBFB34
:100160000B1B2005200515FBEBF0C0F015F040F04F
:10017000F505001000100B05804908C9DBF709C020
:1001800009DBEEDB0000DB00DB2500C925F7F737D4
:10019000DB0909400925EE372509F7804A0AEEE513
:1001A000C012C012D225D225E51212E5401240122B
:1001B0002E252E251B12C91200DB00DB3712E509A4
:1001C000002500251B09080804FCFC03FC03FC03B4
:1001D000030303FC03FC03FCFCD5F08D14A1C881D0
:1001E000CFD9F1AF2000101002F8F80808F808087D
:1001F000F89924428181422499804020A0A0204087
:10020000F008E41A09056505656505650565056578
:1002100065056505656505650565056505091AE4F6
:1002200008F04020A0A0204080101009F9F9FDFD41
:10023000FDFC04FC03FD08F8FCFDFC0404FD0404C3
:10024000FD040404FD03F80803030808000001018D
:1002500008020204FFFE00FEFEFF01FFFE00010097
:10026000FF01000104FCFB02FB02FCFC02FC02FC9F
:1002700003FC03020303FCFBFFFEFFFE02FBFFFF88
:10028000FF0306FCFBFCFCFCFC0202020202030270
:10029000FB02FC02FCFC02FC02FC0304FCFBFC0372
:1002A000FC03FF00FF000203020302FB04FCFBFC53
:1002B00000FC00FF03FF030200020002FB05FCFB41
:1002C000FC02FC02FD03FD03010301030202020222
:1002D00002FB02FCFB02FBFFFEFF0307FCFDFEFB33
:1002E000FEFB02FBFCFEFCFFFCFF02FF02FF020123
:1002F000020100030003FC0307FDFB00FB00FB02FF
:10030000FD02FD02FE02FE00000000FC00FCFCFC01
:1003100003FF00020308FEFB00FB00FB02FD02FDE1
:1003200002010003FE03FE03FC01FC01FCFDFCFDD9
:10033000FEFB0001020306FDFB00FB00FB02FD02C9
:10034000FD02FE02FE00000000FC00FCFCFC0307B6
:10035000FEFB00FB00FB02FD02FD020102010003A7
:100360000003FE03FE03FC01FC01FCFD03FCFBFC9F
:1003700003FCFC0202020302FB04FCFBFC03FCFB8B
:10038000FFFEFFFE02FB02FB020303FCFBFC02FC80
:1003900003FF03FF03010105FCFBFCFEFC03FCFF64
:1003A000FCFFFDFF01FBFDFF0103FDFF05FEFB015F
:1003B000FB01FB01010101FF03FF03FD01FD01FD45
:1003C0000003FEFB00FBFFFBFF03FE03000304FC36
:1003D000FBFCFEFCFFFC03FCFF02FF02FB02030927
:1003E000FEFB01FB01FB02FC020201030103FE0311
:1003F000FE03FC01FC01FCFDFCFDFEFBFEFF02FF19
:1004000002FF020203FCFB02FBFCFF02FFFCFFFCFD
:100410000304FCFB02FBFCFF02FFFCFFFC03FC03EC
:10042000020306FCFB00FB00FB02FD02FD020102D1
:100430000100030003FC03FC03FCFB07FEFB01FBC4
:1004400001FB02FC020201030103FE03FE03FC01A7
:10045000FC01FCFDFCFDFEFB0AFDFB00FB00FB02BA
:10046000FD02FD02FE02FE01FF01FFFCFF01FF0293
:100470000002000202020201030103FC03FC03FC70
:10048000FC05FEFB00FB00FB02FD02FD0203FCFD80
:10049000FC03FC00020002FFFCFFFDFF03FF040B56
:1004A000FCFCFDFBFDFB01FB01FB02FC02FC02FE70
:1004B00002FE01FFFDFFFCFEFCFEFCFCFDFF01FF58
:1004C00002FF0202020201030103FD030FFCFCFD17
:1004D000FBFDFB01FB01FB02FC02FC02FE02FE0134
:1004E000FFFDFFFCFEFCFEFCFCFDFF01FF01FF0227
:1004F0000002000202020201030103FD03FD03FCEE
:1005000002FC02FC00FC00FDFF03FDFB01FB01FB04
:1005100002FC02FC02030BFCFCFCFFFCFCFDFBFDEF
:10052000FB02FBFDFF01FF01FF02000200020202CD
:100530000201030103FD03FD03FC02FC02FC00FCBD
:1005400000FDFF0AFCFCFDFBFDFB02FBFCFCFCFECE
:10055000FCFEFDFFFDFF01FF01FF020002000202A1
:10056000020201030103FD03FD03FC0204FCFBFC8A
:10057000FEFCFEFDFFFDFF00FF01FB01030AFCFC8A
:10058000FDFBFDFB01FB01FB02FC02FC02FE02FE87
:1005900001FF01FFFDFF01FF020002000202020253
:1005A00001030103FC030AFCFCFDFBFDFB01FB0155
:1005B000FB02FC02FC02FE02FE01FF01FFFDFFFD4B
:1005C000FFFC00FC00FC02FC02FD03FD0302030231
:1005D000FDFE00FB00FB000309FEFB00FB00FB022D
:1005E000FD02FD0201020100030003FE03FE03FC05
:1005F00001FC01FCFDFD0101FDFCFDFEFB01FC0217
:1006000002FC01FF02FF0302FFFBFFFFFF02FF03EB
:10061000802E08F7E92517DB1709E9F7E9E5FBE57F
:10062000FBF70E090E1BFB1BFB09E9DB17C0FB25C3
:100630001740FB0000000000000000000000000068
:100640000000000000000000000000803708C0EE3D
:10065000EE1B121B40EED2EE001B001B2EEEEE0036
:1006600000EE00EE1200C0EEC9E540EE37E5802650
:100670000809001B13E513F700EEF7E500E500F7A6
:100680001309131B001B0012F7E513C0ED1B1340E9
:10069000ED00000706000000000000000000000060
:1006A000000000000000000000000000000206FD45
:1006B00005D805CF05A6057D056C0543051605097A
:1006C00005CC049F04960400000000000000000018
:1006D000000000810458043B04220411040404DFD8
:1006E00003CE03C103AC0397038A0379036C034F62
:1006F0000336031503F802DB02D202BD02AC029BF3
:100700000282027502640200000000000000000086
:10071000000000535441525420574156452025644F
:10072000005741525020544F204143452100474536
:100730005420524541445921000072017450274011
:1007400061000000000072017450254029416100E1
:1007500000007201748012410641610000007216AF
:10076000746E9101321D4A61000000007216746EB1
:100770009101CE294A6100000003081700200021E2
:100780000029002F00350046005700040001020335
:10079000746E720F820580006161746E9206018032
:1007A0000261920701800361741F40740061194166
:1007B0001C4120412141254128412C412D42610D00
:1007C000401040144015400D401040144015406149
:1007D00082044661030511001D001E001F00200059
:1007E00004000102037478910146721482048000AF
:1007F000616161612043264361030715001C0021EC
:1008000000260027002E0035000400010203746E4C
:100810007208820461746E820561746E8206616181
:1008200028472047214F6125471C471E4F61104034
:100830000D4010400D4010400D4010400D40104341
:100840000B43064F61031633005700580072009D9A
:1008500000A300AC00AF00B600B900BC00C300C6E6
:1008600000C900D000D700DC00E100F20003011451
:10087000011B010400010203746E721182068207DB
:100880009208018209820A920B01820C820D920663
:1008900001820C820E820F821080006161746E9260
:1008A000110F9212019213019211039212019213ED
:1008B0000192110380026192140282159214028245
:1008C0001592140282159214028215921402821556
:1008D00092140282159214028215921402821580DB
:1008E0000361741F4074006174109100F84181002D
:1008F00061195F6119571B43174361175F61195FE6
:1009000061195715431B43611B5F61155F611757E1
:10091000124419426117571B431C43611C43195B66
:1009200061195B1543610D4300410D4000421040C9
:100930000040124000426109430041094000420B5F
:100940004000400D400042610B4300410B4000421B
:100950000D4000400F40004261820446820545611F
:1009600082044682044082044082044261031735B7
:10097000004C004D00680081008700900093009AB1
:10098000009F00A400A900AE00B500C400C900CEBD
:1009900000D300D800DB00E200EF00F20004000109
:1009A0000203746E72118206820782088209820A2B
:1009B000820B820C820D80006161746E8440920E05
:1009C00003920F0392100392110182128215821278
:1009D0008216800261746E92130282149213028254
:1009E0001492130282149213028214800361741F02
:1009F0004074006174109100F841810061195F61D9
:100A0000195317431947611B4B1C53611C571E4751
:100A100061204B21536121571E4761204521452309
:100A20005361234F254320431C4000401C41204379
:100A3000610D471947610847144761094715476128
:100A40000B471747610B4761820446820545618267
:100A500004478204408204408204416117476117C1
:100A60004119411C411E4161030E23003400350031
:100A700046005300590062006B0072007D00800048
:100A800083008A0091000400010203746E721292C6
:100A900006028207920602820880006161746E84F9
:100AA00040920902820A920902820B800261920C32
:100AB00002820D920C02820D800361741F4074004B
:100AC0006174109100F84181006125440040254582
:100AD000194361264528452A436120431441214397
:100AE00015412843610D4F610E4F610845094510BE
:100AF0004361820446820545618204478204408244
:100B0000044082044161031531004800490062003D
:100B10006F0075007E00810088008F0092009900B0
:100B20009E00AB00BC00CF00E000F1000401150105
:100B30002D010400010203746E720F820682078287
:100B40000682088209820A820B820C80006161742D
:100B50006E920D02820E920D02820F92100282118D
:100B6000921002821280026192130682149213067E
:100B70008214800361741F4074006174109100F846
:100B800041810061145F61004F1747154761004FB5
:100B90001647174761195F61004F1C471E47611BCD
:100BA0004B195361004B174320431C431943174310
:100BB00061084000400F411441174108410F4100B6
:100BC0004361084000400F411441174108410F4163
:100BD000144117416108410B410F41124114411763
:100BE000411B410041610D400040144119411C412D
:100BF0000D4114410043610D400040144119411C56
:100C0000410D41144119411C4161104114411741EA
:100C100019411C4120412541284161820440820440
:100C20004082044082044082058204408204408263
:100C3000044061820541820541820541820541618E
:100C400003091900230024002C003200380044005E
:100C50006100A2000400010203746E721292060188
:100C600080006161746E92070180026192080180C8
:100C70000361741F407400617504741F9100F84390
:100C80006481006134400040284000443940004203
:100C9000384000402C40004831400040254000448E
:100CA00061014000400D400040014000400D400007
:100CB000400D400040014000400D40004001400018
:100CC00040014000400D400040014000400D400008
:100CD000400D400040014000400D400040014000F8
:100CE0004061418204408204428205418204428282
:100CF00004408204428205418204406103173500AA
:100D00005B005C006F009A00A000A900AC00B50079
:100D1000B800BD00C200C500C800CD00D200D5009B
:100D2000D800E100E400F9000E0115010400010201
:100D300003746E721292060182078208820682098B
:100D4000820A820B820C820D820E820F8210820C2C
:100D50008211820B80006161746E9212098213828B
:100D6000149212018213821480026192150282167B
:100D7000921502821692150282169215028216921E
:100D8000150282169215028216921502821692158B
:100D9000028216800361741F407400617410910018
:100DA000F841810061165F611B431A431B431A53CC
:100DB000611A5F6116571B47611F4B1D53611D5F11
:100DC00061205F6120571B47611A4B165361165F04
:100DD00061205F6116431A431B431D5361005F612D
:100DE0002742004227420042294100412743004157
:100DF000264300456127420042274200422241002B
:100E0000412743004126430045618204468205454F
:100E10006182044682044082044082044261030BE2
:100E20001D002F0030003A00400046004D005000E9
:100E300057005E0065000400010203746E944111C6
:100E40007212820582088209820A80006161746ED2
:100E5000844092060F80026192070F800361741F25
:100E600040740061185919431841610D47618204AB
:100E700042820442611B591C431B41612259234297
:100E800022426127592843274161032047007E0001
:100E90007F00A200C600CC00D700E200ED00FC00FD
:100EA0000D011E012F014001510162016501680120
:100EB0006B016E0171017A017D018A019D01B20110
:100EC000CB01CF01D601E001FC011B0204000102AD
:100ED00003746E721282058206820782088205827E
:100EE00006820782088209820A820B820C820D82A6
:100EF0000B820C820E820F82108211821282138268
:100F0000118214821580006161746E92160282173C
:100F1000921602821792180282199218028219926E
:100F2000180282199218028219800261746E921A54
:100F30000E821B921A0E821C921A0E821B921A0E9D
:100F4000821C921D02821E921D02921F0380036169
:100F5000741F40740061004F1E4319431E43004339
:100F600061004F1C4319431C43004361004F12436F
:100F700015431743004361004912420042154317CD
:100F800043194300436100491E4000401E40004297
:100F90001E43194315476100491C4000401C400096
:100FA000421C431943174761004912400040124058
:100FB0000042124315431947610049124000401294
:100FC000400042154317431C476100491E40004042
:100FD0001E4000421E43194317476100491C400050
:100FE000401C4000421C4319431E4761155F6117B6
:100FF0005F61195F611C5F61175F611C55154117C7
:10100000412145611E5F61124300410B4100430BCA
:1010100041005161124300410B4100430B41004B21
:1010200017411241004161124300410B4100430B43
:101030004100450B4100430B410043611243004115
:101040000B4100430B4100430B4100430B4117414F
:10105000124100416182044661820442820442617D
:10106000820442820440820440618204428204423B
:101070008204428204428204428204428204428206
:10108000044082044061820442820442820442821B
:101090000442820442820442820440820440820468
:1010A0004082044061820440820440820440820401
:1010B0004061030919001E001F00270034003A0098
:1010C00057005B0065000400010203720F8000619D
:1010D000617480920507800261920606820792067B
:1010E000068208800361741F407400611240004052
:1010F00012400040124000401240004015420040A3
:101100001240004012400040618204466182044265
:101110008204408204406182044082044082044090
:101120008204406157415645532053555256495603
:1011300045443A2025640047414D45204F564552CD
:10114000000102040810204080002054DE23BC4A25
:10115000AC0000B040E04080000000000000000053
:101160000000000000000000000000C080E090D8F7
:1011700030DC9464CB76D86000000A59AF51BE458C
:10118000AF608006081E497B8E54B8608000000066
:10119000000000000080D0701CE3563F120A0403D8
:1011A000A1D029F82CD86C1A0000000001020D15FE
:1011B0006A5A25D24C5850A0020F31CDBED500003E
:1011C00000000000F42A378AC541806010D86A5FA9
:1011D0002275170C03010000000000000000000051
:1011E000000001000305070D0080E53F4A050000EF
:1011F000301A546A1A64152F88950B0405030101EF
:1012000000000000000000000000000000000000DE
:10121000008080C0A06038141B04010100000000A1
:1012200000000000000001020F1A2E3458E0406058
:1012300080C00080000000000006030407040305CE
:10124000020100010000000000000000000000009A
:10125000000000000000000000000000000001018C
:101260000102050603060506043E0408043E001CB0
:10127000221C003E221C003E203E002C2A1A0000A8
:10128000003E2222003E0A34003A2A2A0038121276
:101290003C00023A02003A2A2A6B075D07510745D3
:1012A000073907B2108A0E1E0EFC0C400C060B68A4
:1012B0000A6D094508F907D4077907535441525478
:1012C00000455641444520320050524F4752414D4F
:1012D0004D494E473A0A562E20504F50410A4C2E47
:1012E000205354494C4C0A472E20475249534F47EC
:1012F0004F4E4F0050524F4752414D4D494E473A85
:101300000A442E20425249474E4F4C490A532E2040
:101310004C454D4D4F4E530A412E2044454E4E49AB
:10132000530050524F4752414D4D494E473A0A4D96
:101330002E20534348574152545A0A4A2E204741BF
:10134000524349410A4D2E2054494E544955430AAF
:10135000004152543A0A4D2E2054494E54495543A7
:101360000A4A562044414C454E0A4A44204A4F4EB0
:1013700045530A4A2E20474152434941004D555397
:10138000494320616E64205346583A0A4A2E20474A
:101390004152434941004352414654454420425939
:1013A0003A0A4D4F445553204352454154450A444F
:1013B0004543454D42455220323031370041535369
:1013C00041554C5400424F4D4245520053434F55F6
:1013D000540000000C011C012D013F015201660167
:1013E0007B019101A901C301DD01FA011802380254
:1013F00059027D02A302CB02F602230353038503A5
:10140000BB03F30330046F04B304FA0446059605E6
:10141000EB054606A5060A077507E7075F08DF081C
:101420006609F5098C0A2D0BD70B8B0C4A0D140E8F
:10143000EB0ECE0FBE10BD11CB12EA1319155A16C2
:10144000AE171619941A291CD61D9C1F7D217B23CB
:10145000972511241FBECFEFDAE0DEBFCDBF11E02C
:10146000A0E0B1E0E6EFFFE602C005900D92AA30E1
:10147000B107D9F728E0AAE0B1E001C01D92A83871
:10148000B207E1F70E94112B0C94DA330C940000A0
:10149000FF920F931F93CF93DF938C01EB01F0909A
:1014A0000E0182E0F81210C09D8D91509D8F19168B
:1014B000E4F584E08093630881E0F801828382E8A8
:1014C0009FE0968385833AC0809126019091270101
:1014D000A0912801B091290188879987AA87BB87A5
:1014E00020E030E040E853E46091560170915701EC
:1014F00080915801909159010E9452346C877D87E8
:101500008E879F87F1E02091340130913501409121
:101510003601509137016C817D818E819F81FF1250
:1015200008C00E943035181624F681E0F801828345
:1015300005C00E94FA361816C4F7BBCFDF91CF91D1
:101540001F910F91FF9008958F929F92AF92BF923B
:10155000FF920F931F93CF93DF938C01EB0185E0F4
:101560008093630810922201812C912C40EAA42ED2
:1015700041ECB42E80921C0190921D01A0921E019C
:10158000B0921F018C8D887F8C8F20E030E040E886
:1015900053E46091560170915701809158019091E8
:1015A00059010E9452346C877D878E879F871F8EDA
:1015B0001E8E888E998EAA8EBB8E2091210133E0DB
:1015C000822F632F0E94A23791112EC030930E01FB
:1015D00020E030E040E054E4609134017091350146
:1015E00080913601909137010E9451346C837D8344
:1015F0008E839F8380E090E0A0E2B1E4888B998B9A
:10160000AA8BBB8B66E070E080E090E00E94491DF1
:1016100063507109810991090E94E4356C8B7D8BBF
:101620008E8B9F8B86E0B7C020FD8BC082E08093BD
:101630000E010E94CC33862F8170F82E60FD05C00C
:101640006BED7FE089EC90E403C060E070E0CB01DB
:10165000812C912C20E8A22E23E4B22E8C829D8234
:10166000AE82BF820E947437A50194010E940737A1
:101670009B01AC0160915601709157018091580116
:10168000909159010E9452346C877D878E879F8785
:101690008090260190902701A0902801B090290108
:1016A0006CE370E080E090E00E94491D625E7F4F35
:1016B0008F4F9F4F0E94E4359B01AC01C501B401DF
:1016C0000E945234688779878A879B87809120019E
:1016D00090E09C012A5F3F4F032E000C440B550BFA
:1016E0006AEF7FEF681B790B072E000C880B990BB4
:1016F0000E946D1D0E94E4356C8B7D8B8E8B9F8BC1
:10170000188A198A1A8A1B8A8091200167EE7FEF56
:10171000681B7109660F771F072E000C880B990B49
:101720000E94E435688F798F8A8F9B8FF11003C0F8
:1017300084EB90E002C080E090E09F8F8E8F84E089
:101740002AC081E080930E0120E030E040E054E4C4
:10175000609134017091350180913601909137018B
:101760000E9452346C837D838E839F8380E090E05F
:10177000A0E2B1EC888B998BAA8BBB8B8091260160
:1017800090912701A0912801B0912901888799871C
:10179000AA87BB8782E00E941C1E90910E019230A6
:1017A00029F0933031F02DE331E005C028E731E036
:1017B00002C02BE931E03B832A8380912001899F7D
:1017C000C0011124449690930D0180930C0181E097
:1017D000F801828388E49AE096838583DF91CF9134
:1017E0001F910F91FF90BF90AF909F908F900895A1
:1017F000CF92DF92EF92FF92CF93DF93EC01C090F4
:101800002601D0902701E0902801F09029016CE298
:1018100071E080E090E00E94491D665971098109DC
:1018200091090E94E4359B01AC01C701B6010E94F9
:101830005234688779878A879B876EE070E080E002
:1018400090E00E94491D67507109810991090E9429
:10185000E4356C8B7D8B8E8B9F8B6EE070E080E02F
:1018600090E00E94491D67507109810991090E9409
:10187000E435688B798B8A8B9B8B20E030E048E4E1
:1018800052E46091560170915701809158019091F6
:1018900059010E9451346C877D878E879F87C09045
:1018A0001C01D0901D01E0901E01F0901F0166E028
:1018B00070E080E090E00E94491D9B01AC012F5F29
:1018C0003F4F4F4F5F4FA0912001B0E00E94053481
:1018D0000E94E4359B01AC01C701B6010E9452345D
:1018E000688F798F8A8F9B8F68E671E080E090E047
:1018F0000E94491DDC01CB01845B9109A109B1095A
:1019000099A388A3DF91CF91FF90EF90DF90CF90C4
:1019100008950F931F93CF93DF938C01EB019C8D60
:10192000987F94609C8F1B821A826CE370E080E049
:1019300090E00E94491D625E6D8F81E0F801828314
:1019400089EA9CE096838583DF91CF911F910F9167
:1019500008958F929F92AF92BF92CF92DF92EF92B3
:10196000FF920F931F93CF93DF93EB012D8D2150A7
:101970002D8F27FF9DC08C0180910B01C0903401F9
:10198000D0903501E0903601F0903701882311F1B5
:1019900060E072E080E090E00E94491D812C32E01E
:1019A000932EA12CB12CA5019401261B370B480BBB
:1019B000590BCA01B9010E94E4359B01AC01C70172
:1019C000B6010E9452346C837D838E839F838CEF9B
:1019D0009FEF21C060E072E080E090E00E94491D2E
:1019E000812C22E0922EA12CB12CA5019401261B62
:1019F000370B480B590BCA01B9010E94E4359B0112
:101A0000AC01C701B6010E9451346C837D838E8383
:101A10009F8384E090E09F8F8E8F81E090910B01F7
:101A2000911180E080930B01C0902601D090270196
:101A3000E0902801F090290168EC70E080E090E0EF
:101A40000E94491D64567109810991090E94E4357B
:101A50009B01AC01C701B6010E94523468877987A7
:101A60008A879B8720E030E040E454E4609156018F
:101A70007091570180915801909159010E94523400
:101A80006C877D878E879F8780E090E0A0E0B0E440
:101A9000888F998FAA8FBB8F86E091E09B838A8382
:101AA00081E0F801828380E093E19683858303C01F
:101AB00021E0FC012283DF91CF911F910F91FF90D4
:101AC000EF90DF90CF90BF90AF909F908F90089550
:101AD000CF93DF93EC01FB011482CB0104960E94AB
:101AE000A92483E00E94F01E81E08A838BEB9DE0B5
:101AF0009E838D83DF91CF9108950F931F93CF9392
:101B0000DF93EB01288539852150310939872887F2
:101B100037FF29C08C018C818F5F8C839091630883
:101B2000923019F4833084F004C0933069F4863025
:101B30005CF088EA9EE10E947224C801DF91CF9197
:101B40001F910F910C94961F83E00E94F01ECE010E
:101B500004960E94A92481E0F80182838BEB9DE02A
:101B60009683858303C021E0FC012283DF91CF911E
:101B70001F910F9108954F925F926F927F928F9273
:101B80009F92AF92BF92CF92DF92EF92FF920F930C
:101B90001F93CF93DF931F92CDB7DEB73C012B018C
:101BA000FB018085918501979187808720911101A4
:101BB000322F377F3093110123FF18C084ED9EE14F
:101BC0000E947224C3010F90DF91CF911F910F915A
:101BD000FF90EF90DF90CF90BF90AF909F908F904D
:101BE0007F906F905F904F900C94961F322F377BB1
:101BF0003093110126FF0EC08FEF9FEFFB019187FD
:101C0000808781E0F30182838DE79DE0F301968375
:101C1000858375C097FF12C0FB018285882319F068
:101C200085E090E0ECCF83E090E0FB019187808736
:101C300087818F5F878384E00E94F01EF201858593
:101C40008F3F01F1882341F0813019F48BE496E055
:101C500005C08EE696E002C080E196E01F92812CDE
:101C6000912CA12C20E4B22EC12CD12C760100E0C5
:101C700010E020EC31E440E050E060E872E40E94C3
:101C800062220F9080916308833031F486EE90E0F9
:101C90009093050180930401F20115819681E384FC
:101CA000F48400E0F2018781081704F5F7014491FC
:101CB00041110BC0F2018285811118C08CE390E0C4
:101CC0009187808781E0828711C04A3019F4965F3E
:101CD00016E008C0692F812F99830E94F018180F11
:101CE0000F5F9981FFEFEF1AFF0ADCCF80E091E0F0
:101CF000909305018093040181E0F30182830F90AA
:101D0000DF91CF911F910F91FF90EF90DF90CF90D7
:101D1000BF90AF909F908F907F906F905F904F900B
:101D200008952F923F924F925F926F927F928F927F
:101D30009F92AF92BF92CF92DF92EF92FF920F935A
:101D40001F93CF93DF9300D000D0CDB7DEB7F090D4
:101D5000200120916308243011F080E0BCC0E62E01
:101D60008C010E9458211C010097B9F3DC015C969C
:101D70008C915C97887F82605C968C93B2E0EB16C6
:101D800029F096ECA92E91E0B92E04C089E2A82E84
:101D900082E0B82E6F2D70E08AE590E00E94D03787
:101DA000072E000C880B990B0E94E4356B017C0117
:101DB000F101B382A28280E091E0978F868F81E06B
:101DC0000E94F01E20E030E040E051E4D80114967B
:101DD0006D917D918D919C9117970E9451342B01AB
:101DE0003C01F101648375838683978320E030E0B2
:101DF00040E051E4D80118966D917D918D919C91B0
:101E00001B970E9451344B015C01F101608771877F
:101E100082879387D8011C968D919D910D90BC91DE
:101E2000A02D89839A83AB83BC8384879587A687FB
:101E3000B787A301920160913401709135018091BF
:101E40003601909137010E945134A70196010E94FA
:101E50003A35D10150966D937D938D939C93539712
:101E6000A5019401609126017091270180912801BC
:101E7000909129010E945134A70196010E943A35A0
:101E8000F101648B758B868B978B20915601309175
:101E90005701409158015091590169817A818B8194
:101EA0009C810E945134A70196010E943A359B0102
:101EB000AC0160911C0170911D0180911E019091F7
:101EC0001F010E945134D10158966D937D938D93DB
:101ED0009C935B9781E00F900F900F900F90DF9194
:101EE000CF911F910F91FF90EF90DF90CF90BF9017
:101EF000AF909F908F907F906F905F904F903F90AA
:101F00002F9008958F929F92AF92BF92DF92EF929F
:101F1000FF920F931F93CF93DF937C01EB018C8D86
:101F200085FF41C020910C0130910D0121503109F4
:101F300030930D0120930C01982F9F7D9C8F2330AF
:101F40003105F0F480718C8F1F8E1E8E20E030E002
:101F500040E450E460911C0170911D0180911E01CC
:101F600090911F010E945134688F798F8A8F9B8FC7
:101F700081E0F701828387E192E19683858334C211
:101F80001B821A8280910E01813009F048C081E0E5
:101F900090E02E8D3F8D2130310511F480E090E0EE
:101FA0009F8F8E8F3CC090910E01923009F419C220
:101FB0009330C9F12DE331E03B832A830E8D1F8DD1
:101FC000D0902001913009F0EEC020E030E040E8F0
:101FD00053E460915601709157018091580190919E
:101FE00059010E94523420E030E040E251E40E9466
:101FF00051346C877D878E879F8788A199A1013096
:102000001105A1F42D2D30E02B5F3F4F820F931F60
:1020100099A388A38D8D81508D8F181664F481E06B
:10202000F7018283E1C12BE931E0C6CF2BEF3FEF0F
:102030002D193109EBCF62E0CE010E94910E809103
:10204000210110912001853118F488E2811B01C023
:102050008AE08D8F20913401309135014091360115
:10206000509137016C817D818E819F810E94513416
:102070004B015C0120E030E046E953EC0E94303532
:1020800087FF0DC0212F30E0265F3F4F032E000C4D
:10209000440B550B63E070E080E090E028C020E046
:1020A00030E046E953E4C501B4010E94FA3618163F
:1020B0006CF426EF3FEF211B3109032E000C440B7B
:1020C000550B6DEF7FEF8FEF9FEF11C0812F90E0E9
:1020D0009C01265F3F4F032E000C440B550B66EF0F
:1020E0007FEF681B790B072E000C880B990B0E9461
:1020F0006D1D0E94E435688B798B8A8B9B8B2091B8
:1021000026013091270140912801509129016885CD
:1021100079858A859B850E9451344B015C0120E0C2
:1021200030E046E953EC0E9430351091200187FFE2
:102130000DC0212F30E0265F3F4F032E000C440BD3
:10214000550B63E070E080E090E028C020E030E0D4
:1021500046E953E4C501B4010E94FA3618166CF43E
:1021600026EF3FEF211B3109032E000C440B550BCA
:102170006DEF7FEF8FEF9FEF11C0812F90E09C01FB
:10218000265F3F4F032E000C440B550B66EF7FEF8D
:10219000681B790B072E000C880B990B0E946D1D94
:1021A0000E94E43519C1923009F0B3C087FF2DC0F9
:1021B0000D1911091F8F0E8F17FF23C08090260164
:1021C00090902701A0902801B09029016CE271E065
:1021D00080E090E00E94491D6659710981099109CA
:1021E0000E94E4359B01AC01C501B4010E94523448
:1021F000688779878A879B871F8E1E8E8C8D8F7745
:102200002FC088A199A10C9730C00D0D111D1F8FF3
:102210000E8F053B110534F1809026019090270127
:10222000A0902801B09029016CE271E080E090E07C
:102230000E94491D66597109810991090E94E4357E
:102240009B01AC01C501B4010E94523468877987B3
:102250008A879B8784EB90E09F8F8E8F8C8D806820
:102260008C8F05C088A199A10C9699A388A36E8D27
:102270007F8D072E000C880B990B0E94E4352BED07
:102280003FE049E450E40E94073720E030E044E3B7
:1022900053E40E943A354B015C010E94353520E041
:1022A00030E040E054E40E9407376C837D838E83E6
:1022B0009F83C501B4010E94743720E030E040E004
:1022C00054E40E9407379B01AC0160915601709164
:1022D000570180915801909159010E9452346C87A6
:1022E0007D878E879F878D8D81508D8F18160CF47A
:1022F00096CE80912101853128F49091200182E3CE
:10230000891B01C084E18D8F62E0CE010E94910E95
:1023100086CE87FF0EC00D1911091F8F0E8F17FF74
:102320001AC01F8E1E8ECE010E94F80B8C8D8F77E7
:1023300011C00D0D111D0B3511051CF41F8F0E8FD3
:102340000AC08AE590E09F8F8E8FCE010E94F80B25
:102350008C8D80688C8F8D8D81508D8F18160CF42C
:102360005ECE62E0CE010E94910E80912101853106
:1023700028F49091200182E3891B01C084E18D8FB4
:102380006EE070E080E090E00E94491D67507109A6
:10239000810991090E94E4359B01AC016889798922
:1023A0008A899B890E945234688B798B8A8B9B8B9C
:1023B0006EE070E080E090E00E94491D6750710976
:1023C000810991090E94E4359B01AC016C897D89EA
:1023D0008E899F890E9452346C8B7D8B8E8B9F8B54
:1023E0001ECE28E731E0E8CDDF91CF911F910F910C
:1023F000FF90EF90DF90BF90AF909F908F900895E7
:10240000CF93DF93E0912401F0912501309761F0A3
:10241000D081C181848D8770823019F4CF010E94F0
:10242000621FED2FFC2FF2CFDF91CF9108950F9314
:102430001F93CF93DF938C01EB018C8D80618C8F88
:102440008E8D9F8D01969F8F8E8F0E9400128E8D94
:102450009F8DCB9704F185E08093630881E480939E
:10246000220180E090E0A0ECB0E480931C01909306
:102470001D01A0931E01B0931F018BE00E941C1E42
:1024800086EE9AE10E947224C801DF91CF911F91DC
:102490000F910C94961F81E0F801828387E192E10D
:1024A00096838583DF91CF911F910F9108958F922D
:1024B0009F92AF92BF92CF92DF92EF92FF92CF9313
:1024C000DF93EC0120915601309157014091580162
:1024D000509159016C857D858E859F850E94513470
:1024E0006B017C0120E030E0A9010E94FA36181649
:1024F00024F0F7FAF094F7F8F094888C998CAA8C71
:10250000BB8C20E030E0A901C501B4010E94FA367D
:10251000181624F0B7FAB094B7F8B094A501940156
:10252000C701B6010E94303587FF5EC0209134019B
:102530003091350140913601509137016C817D8198
:102540008E819F810E9451346B017C0120E030E03C
:10255000A9010E94FA3618165CF420E030E040E849
:1025600052E4C701B6010E94303587FF3DC00AC062
:1025700020E030E040E852ECC701B6010E94FA3694
:10258000181694F5209126013091270140912801D9
:1025900050912901688579858A859B850E945134EF
:1025A0006B017C0120E030E0A9010E94FA36181688
:1025B0006CF420E030E040E852E4C701B6010E942C
:1025C0003035C82FCC1FCC27CC1F0CC0C1E020E079
:1025D00030E040E852ECC701B6010E94FA36181606
:1025E0000CF0C0E08C2F01C080E0DF91CF91FF9014
:1025F000EF90DF90CF90BF90AF909F908F90089515
:102600008F929F92AF92BF92CF92DF92EF92FF9202
:102610000F931F93CF93DF938C01EB019C8D95FF5C
:1026200002C09F7D9C8FCE010E945712882309F41F
:1026300045C080916308843019F48EE10E944F1FD9
:1026400020E030E040E050E460911C0170911D01F9
:1026500080911E0190911F010E945234688F798FE2
:102660008A8F9B8F20E030E040E251E46091560178
:102670007091570180915801909159010E945234F4
:102680006C877D878E879F8760E170E080E090E0B7
:102690000E94491D28E0C22ED12CE12CF12CA7016B
:1026A0009601261B370B480B590BCA01B9010E9432
:1026B000E435688B798B8A8B9B8B56C08E8D9F8D72
:1026C00020E030E040E854E418161906ACF46091BC
:1026D00034017091350180913601909137010E944B
:1026E00052349B01AC016C817D818E819F810E945F
:1026F000FA361816ACF453C060913401709135016C
:1027000080913601909137010E9451349B01AC01B8
:102710006C817D818E819F810E94303587FD3FC015
:10272000CC84DD84EE84FF84809056019090570124
:10273000A0905801B0905901A5019401C701B601BC
:102740000E94303587FD2BC020E030E040E454E4A7
:10275000C501B4010E9452349B01AC01C701B6010E
:102760000E94FA361816DCF088A199A1409699A328
:1027700088A320E030E040E05FE3609116017091B3
:10278000170180911801909119010E9407376C8BF5
:102790007D8B8E8B9F8B81E0F801828311C01B8221
:1027A0001A826CE370E080E090E00E94491D625E56
:1027B0006D8F81E0F801828389EA9CE096838583AE
:1027C000DF91CF911F910F91FF90EF90DF90CF900D
:1027D000BF90AF909F908F900895CF93DF93E0913B
:1027E0002401F0912501309761F0D081C181848D61
:1027F0008770813019F4CF010E94621FED2FFC2FEA
:10280000F2CF10922301DF91CF9108952091210101
:10281000822F65E00E94A237992369F0822F83708E
:1028200061F0822F63E00E94A237992341F020FFDC
:1028300008C081E0089588E0089587E0089585E064
:10284000089583E00895FC01948D20A131A196FFA5
:102850000CC02850310931A320A3719561957109ED
:10286000261737075CF49F7B08C0285F3F4F31A3D2
:1028700020A36217730714F49064948F0895FC01E9
:10288000948D892F807295FF0AC0809122018F5FFD
:10289000809322019071948F178E168E81E0089597
:1028A0000E9400120E94ED130E946C208AE894E1BD
:1028B0000E9472248AE894E10E9472248AE894E1DA
:1028C0000E94722480912101843040F089E89CE0CC
:1028D0000E94722489E89CE00C94722408950F935E
:1028E0001F93CF93DF93EC018B016EE170E080E0EA
:1028F00090E00E94491D9CE3960FF801958F81E0BE
:102900008A8388EC94E19E838D83DF91CF911F9120
:102910000F9108950C946F14EF92FF920F931F93F1
:10292000CF93DF937C01EB018C8D80618C8F0E8DBA
:102930001F8D0F5F1F4F1F8F0E8F209156013091FB
:10294000570140915801509159016C857D858E85C4
:102950009F850E94303518168CF40B33110574F4E2
:1029600081E0F70182838CE894E196838583DF918F
:10297000CF911F910F91FF90EF900895BE01C70175
:10298000DF91CF911F910F91FF90EF900C946F14F6
:10299000CF92DF92EF92FF920F931F93CF93DF932B
:1029A0008C01EB018D8D18160CF47EC180916308AB
:1029B000843009F079C18C8D887C8C8F60912001E6
:1029C00070E08CE390E00E94D0377B019B01770F91
:1029D000440B550B61E070E080E090E00E946D1DBB
:1029E000E60EED8E19A218A220912101243020F4C8
:1029F00030E040E050E004C023E030E040E050E050
:102A000060E070E0CB010E946D1D613071058105B1
:102A1000910509F47EC0623071058105910509F4C4
:102A2000F3C0672B682B692B09F040C18EE696E056
:102A30009B838A83C0903401D0903501E0903601A9
:102A4000F090370160E072E080E090E00E94491D64
:102A50007150810991090E94E4359B01AC01C701C5
:102A6000B6010E9452346C837D838E839F83C09015
:102A70002601D0902701E0902801F090290160E024
:102A800072E080E090E00E94491D71508109910937
:102A90000E94E4359B01AC01C701B6010E9452348B
:102AA000688779878A879B8720E030E040E854E494
:102AB0006091560170915701809158019091590190
:102AC0000E9452346C877D878E879F8780E090E0DC
:102AD000A0ECB0EC888F998FAA8FBB8F1C8A1D8ABF
:102AE0001E8A1F8A188A198A1A8A1B8A64E670E06D
:102AF00080E090E00E94491DDC01CB01C297A10952
:102B0000B10999A388A381E0F80182838CE797E15A
:102B100078C08BE496E09B838A8320E030E040E03D
:102B200053E46091340170913501809136019091A8
:102B300037010E9452346B017C016FE770E080E046
:102B400090E00E94491D0E94E4359B01AC01C70141
:102B5000B6010E9451346C837D838E839F8320E075
:102B600030E040E053E460912601709127018091AC
:102B70002801909129010E9452346B017C016FE77A
:102B800070E080E090E00E94491D0E94E4359B01C6
:102B9000AC01C701B6010E945134688779878A87E2
:102BA0009B8720E030E040EF51E460915601709146
:102BB000570180915801909159010E9451346C87BE
:102BC0007D878E879F876091210170E080E090E093
:102BD0000E94E43520E030E040EE50E40E945234A0
:102BE000688F798F8A8F9B8F1C8A1D8A1E8A1F8A05
:102BF000188A198A1A8A1B8A81E0F80182838FEA6F
:102C000098E19683858352C080E196E09B838A8316
:102C10000E94CC3360FD05C06BED7FE089EC90E451
:102C200003C060E070E0CB01C12CD12C20E8E22E83
:102C300023E4F22ECC82DD82EE82FF820E94743782
:102C4000A70196010E9407379B01AC0160915601D4
:102C50007091570180915801909159010E9452340E
:102C60006C877D878E879F878091260190912701B1
:102C7000A0912801B091290188879987AA87BB87ED
:102C8000188E198E1A8E1B8E1C8A1D8A1E8A1F8A08
:102C9000188A198A1A8A1B8A1F8E1E8E81E0F801F3
:102CA000828381EC96E1ADCF81E08D8F8D8D815057
:102CB0008D8F81E0F8018283DF91CF911F910F9179
:102CC000FF90EF90DF90CF9008950F931F93CF93D5
:102CD000DF93FC01858D9FEF980F958F19160CF4EB
:102CE00049C0EF0120E030E0A9016091120170912C
:102CF000130180911401909115010E9430358111CA
:102D00000FC020E030E0A901609116017091170119
:102D100080911801909119010E943035882319F093
:102D200081E08D8F29C065E070E080E090E00E9436
:102D3000491D672B682B692B11F462E001C061E02B
:102D4000CE010E94910E882359F36091200170E01A
:102D50008CE390E00E94D0378B019B01770F440BEE
:102D6000550B61E070E080E090E00E946D1D060F61
:102D70000D8F02C08250858FDF91CF911F910F91EF
:102D800008958F929F92AF92BF92CF92DF92EF926F
:102D9000FF920F931F93CF93DF938C01EB01CB0135
:102DA0000E943F14882341F081E0F80182838CE87F
:102DB00094E19683858393C0CE010E9465169C8D15
:102DC000809120012E8D3F8D97FF0EC0281B310969
:102DD0003F8F2E8F37FF04C01F8E1E8E9F7710C02F
:102DE00088A199A10C9711C0280F311D3F8F2E8FFC
:102DF000253B31053CF024EB30E03F8F2E8F90686F
:102E00009C8F05C088A199A10C9699A388A36E8D6B
:102E10007F8D072E000C880B990B0E94E4352BED5B
:102E20003FE049E450E40E94073720E030E044E30B
:102E300053E40E943A356B017C018090260190900A
:102E40002701A0902801B0902901288539854A855D
:102E50005B85C501B4010E94FA3618162CF080E09B
:102E600090E0A0E0B0E404C080E090E0A0E0B0EC2E
:102E70008C8B9D8BAE8BBF8B88869986AA86BB86F2
:102E8000C701B6010E94353520E030E040E853E448
:102E90000E9407376C837D838E839F8380916308B4
:102EA0008430D1F4C701B6010E94743720E030E0CD
:102EB00040E853E40E9407379B01AC016091560142
:102EC0007091570180915801909159010E9452349C
:102ED0006C877D878E879F8781E0F8018283DF91F1
:102EE000CF911F910F91FF90EF90DF90CF90BF9007
:102EF000AF909F908F900895CF92DF92EF92FF92C4
:102F00000F931F93CF93DF938C01EB012091560118
:102F10003091570140915801509159016C857D8540
:102F20008E859F850E943035181664F0BE01C80159
:102F3000DF91CF911F910F91FF90EF90DF90CF9095
:102F40000C946F14CE010E943F14882331F081E06D
:102F5000F80182838CE894E134C0CE010E946516AA
:102F600088A199A1089699A388A320915601309130
:102F7000570140915801509159016C857D858E858E
:102F80009F850E9451346B017C0160E071E080E01C
:102F900090E00E94491D7F5F8F4F9F4F0E94E43554
:102FA0009B01AC01C701B6010E94303587FF0CC000
:102FB0008FEF9FEF9F8F8E8F81E0F801828380EFEC
:102FC00097E19683858303C081E0F8018283DF91D6
:102FD000CF911F910F91FF90EF90DF90CF900895C8
:102FE0008F929F92AF92BF92CF92DF92EF92FF9219
:102FF0000F931F93CF93DF938C01EB0180916308B4
:103000006E8D7F8D843029F083E0660F771F8A955F
:10301000E1F7072E000C880B990B0E94E4359B0109
:10302000AC01688D798D8A8D9B8D0E945234688F9A
:10303000798F8A8F9B8FC888D988EA88FB8820E09F
:1030400030E0A901C701B6010E94FA3618162CF02B
:103050002DEC3CEC4CEC5DEB04C02DEC3CEC4CEC72
:103060005DE3C701B6010E945234688B798B8A8B6D
:103070009B8BCC88DD88EE88FF8820E030E0A901BA
:10308000C701B6010E94FA3618162CF02DEC3CEC64
:103090004CEC5DEB04C02DEC3CEC4CEC5DE3C7016B
:1030A000B6010E9452346C8B7D8B8E8B9F8BCC84AF
:1030B000DD84EE84FF848090560190905701A090AB
:1030C0005801B0905901A5019401C701B6010E94B1
:1030D000303518163CF5A5019401C701B6010E94D0
:1030E000513420E030E040E854E40E94FA361816EB
:1030F000CCF0CE010E943F14882341F081E0F8011A
:1031000082838CE894E1968385831CC06DE270E035
:10311000CE010E942314CE010E94651681E0F801C1
:10312000828310C0BE01C801DF91CF911F910F9122
:10313000FF90EF90DF90CF90BF90AF909F908F90D7
:103140000C946F14DF91CF911F910F91FF90EF902E
:10315000DF90CF90BF90AF909F908F9008950F9386
:103160001F93CF93DF93EC018B0120915601309197
:1031700057014091580150915901FB0164857585B3
:10318000868597850E94513420E030E040E054E489
:103190000E94FA3618164CF481E090E0F801978FFF
:1031A000868F8A8380EF97E109C0C8010E943F148F
:1031B000882339F081E08A838CE894E19E838D83B3
:1031C0000AC06FE070E0C8010E942314C8010E9489
:1031D000651681E08A83DF91CF911F910F91089549
:1031E0002F923F924F925F926F927F928F929F9217
:1031F000AF92BF92CF92DF92EF92FF920F931F9305
:10320000CF93DF93CDB7DEB763970FB6F894DEBFE9
:103210000FBECDBF782E062F142FC0900401D09082
:1032200005016D2D772767FD7A95072E000C880B19
:10323000990B0E94E4354B015C01DD24B601DD0CE5
:10324000880B990B0E94E43520E030E040E85BE316
:103250000E9407379B01AC01C501B4010E945234A2
:103260006B017C01812F110F990B0E944934880F4B
:10327000991FAC014F5A594FFA01259134912115EC
:10328000310521F520E030E040E151E4C701B6010D
:103290000E9407370E94AC35862F63960FB6F894CC
:1032A000DEBF0FBECDBFDF91CF911F910F91FF9079
:1032B000EF90DF90CF90BF90AF909F908F907F90D6
:1032C0006F905F904F903F902F900895F901349048
:1032D00010E0802F000F990BAA0BBB0B8A879B87EE
:1032E000AC87BD87872D770C990BAA0BBB0B8E87FC
:1032F0009F87A88BB98BC90104969B8B8A8B13156A
:103300000CF0C0CFF90131960491319694919D83D0
:103310003196A491A983EA89FB8924906A857B85EB
:103320008C859D850E94E4352B013C016E857F854F
:10333000888999890E94E4354B015C01622D220C39
:10334000770B880B990B0E94E435A70196010E9428
:1033500007379B01AC01C301B2010E9452340E94A5
:10336000AC356E837F8388879987F9816F2FFF0F34
:10337000770B880B990B0E94E435A70196010E94F8
:1033800007379B01AC01C501B4010E9452340E9471
:10339000AC3569837A838B839C832D81622F220FC6
:1033A000770B880B990B0E94E435A70196010E94C8
:1033B00007379B01AC01C301B2010E9452340E9445
:1033C000AC352B013C01602F000F770B880B990B5C
:1033D0000E94E435A70196010E9407379B01AC01CA
:1033E000C501B4010E9452340E94AC35DC01CB010E
:1033F0002E813F8149815A81B2010E9490211F5F35
:103400002A893B8978CF3F924F925F926F927F9249
:103410008F929F92AF92BF92CF92DF92EF92FF92E4
:103420000F931F93CF93DF93CDB7DEB7A1970FB65E
:10343000F894DEBF0FBECDBF3DA80EA9CFA8D8AC73
:103440005E0189E3A80EB11C132D8AE0482E512C91
:10345000612C712C7601FFEFEF1AFF0AF6014491FF
:10346000442309F448C0453209F03EC092E0C90E39
:10347000D11CF7014491442391F0443679F545017C
:10348000F2E08F0E911CF50120813181032E000C9A
:10349000440B550B19A2CE0181967C0103C0812FEC
:1034A00083192BC0CA01B901A30192010E94E6331E
:1034B000605DF70162937F012115310541055105DA
:1034C00089F7F70141917F01442331F0602F812F6B
:1034D0000E94F018180FF5CF5401BCCF602F812F38
:1034E0000E94F018180FB6CF602F812F0E94F0189D
:1034F000180F6701AFCF832D811BA1960FB6F894EB
:10350000DEBF0FBECDBFDF91CF911F910F91FF9016
:10351000EF90DF90CF90BF90AF909F908F907F9073
:103520006F905F904F903F900895CF93DF93EC01A1
:103530009091220191509093220191111AC084E040
:103540008093630880E090E0A0ECB0E480931C01DD
:1035500090931D01A0931E01B0931F010E946C2047
:1035600084EA9AE00E947224CE01DF91CF910C94FC
:10357000961F8EEB90E0909305018093040181E209
:1035800097E09F938F9385E08F9383E28F930E94C0
:10359000031A909101010F900F900F900F909436A5
:1035A0001CF49F5F909301019091000194361CF4EC
:1035B0009F5F9093000180E091E0909305018093DC
:1035C000040181E08A83DF91CF910895CF93DF9347
:1035D000EC018091220181508093220120912101F0
:1035E00081112CC084E0809363081092220180E056
:1035F00090E0A0ECB0E480931C0190931D01A09397
:103600001E01B0931F012F5F20932101237029F425
:10361000809120018F5F809320010E9406140E94F8
:103620001C1E0E9400120E94ED130E946C200E943A
:103630005014CE01DF91CF910C94961F88EC90E04E
:10364000909305018093040130E02F5F3F4F3F933B
:103650002F9383E197E09F938F9385E08F938AE187
:103660008F930E94031A80E091E09093050180936C
:103670000401809101010F900F900F900F900F9017
:103680000F9084361CF48F5F8093010190910001AC
:1036900094361CF49F5F9093000181E08A83DF9150
:1036A000CF9108952F923F924F925F926F927F92A7
:1036B0008F929F92AF92BF92CF92DF92EF92FF9242
:1036C0000F931F93CF93DF93CDB7DEB7A0970FB6BD
:1036D000F894DEBF0FBECDBF8F87D62ECA01B901C9
:1036E0002AED3FE049E450E40E94073720E030E053
:1036F00044E353E40E943A354B015C010E943535A6
:1037000069837A838B839C83C501B4010E947437DB
:103710006D837E838F839887E0900401F09005018C
:103720006F2D772767FD7A95072E000C880B990B74
:103730000E94E4354B015C01B7017727072E000C8E
:10374000880B990B0E94E43520E030E040E85BE311
:103750000E9407379B01AC01C501B4010E9452349D
:103760004B015C010F8F18A36F858D2DDD0C990B1C
:10377000AA0BBB0B8A8F9B8FAC8FBD8FEF8DF8A1EF
:103780008491882309F4F0C0082E000C990B6E8FE9
:103790000E944934880F991F9C012F5A394FF90113
:1037A000259034906E8DC62E660FDD08EE08FF085A
:1037B0002114310409F4BCC0F101F491F88B00E04C
:1037C000C10104969A878987988909170CF0A5C0CA
:1037D000F10131962491298BC701B6010E94E4358D
:1037E0006B877C878D879E87F101329614916A8D55
:1037F0007B8D8C8D9D8D0E94E4352B013C01F10168
:1038000033962490E985FA856491062E000C770B97
:10381000880B990B0E94E435A50194010E9407379B
:10382000A30192010E945234A30192010E945134DB
:103830002D813E814F8158850E94073729813A8129
:103840004B815C810E945234A30192010E94523448
:103850000E94AC356A8B7B8B8C8B9D8B622D220CEE
:10386000770B880B990B0E94E435A50194010E9407
:1038700007372B853C854D855E850E9452340E941A
:10388000AC356E8B7F8B888F998F612F110F770BE3
:10389000880B990B0E94E435A50194010E9407371B
:1038A000A30192010E945234A30192010E9451345B
:1038B0002D813E814F8158850E94073729813A81A9
:1038C0004B815C810E945234A30192010E945234C8
:1038D0000E94AC352B013C01F9896F2FFF0F770B4C
:1038E000880B990B0E94E435A50194010E940737CB
:1038F0002B853C854D855E850E9452340E94AC35F7
:10390000DC01CB012A893B894E895F89B2010E9483
:1039100090210F5F29843A8453CFC701B6010E94DA
:10392000E4356B017C0120E030E040E151E40AC065
:10393000C701B6010E94E4356B017C0120E030E054
:1039400040EC50E4C501B4010E9407379B01AC0173
:10395000C701B6010E9452340E94AC35AF8DB8A1A8
:103960001196B8A3AF8F0ACF862FAF858A1BA0967A
:103970000FB6F894DEBF0FBECDBFDF91CF911F9180
:103980000F91FF90EF90DF90CF90BF90AF909F90FE
:103990008F907F906F905F904F903F902F90089501
:1039A000EF92FF920F931F93CF93DF937C01EB0174
:1039B0002C813D814E815F810EE217E063E28EE152
:1039C0000E94521B20E030E040E451E46C817D8194
:1039D0008E819F810E9452346C837D838E839F836E
:1039E0002885398522309CF581E080932001109252
:1039F00022018093210184E0809363088FEF8093FC
:103A000002010E94DF2A0E9406140E941C1E80E010
:103A100090E0A0ECB0E480931C0190931D01A09372
:103A20001E01B0931F0184E6809300018093010181
:103A30001092230110921B010E945014C701DF91C4
:103A4000CF911F910F91FF90EF900C94961F2150F2
:103A500031093987288781E0F7018283DF91CF918F
:103A60001F910F91FF90EF900895FB011092630852
:103A700028E2248328ED258320E330E03783268362
:103A8000108621E0FC01228324EB30E2368325837B
:103A90000895CF93DF9300D000D0CDB7DEB7611586
:103AA00071058105910579F09B01AC0169833A8329
:103AB0004B835C830E94CC3329813A814B815C81AA
:103AC0000E94E63303C060E070E0CB010F900F90DE
:103AD0000F900F90DF91CF910895CF92DF92EF92E8
:103AE000FF920F931F93621773078407950784F45F
:103AF00089019A016B017C01C901B8016C197D092A
:103B00008E099F090E94491D6C0D7D1D8E1D9F1DF4
:103B10001F910F91FF90EF90DF90CF9008955C98E8
:103B20008EBD00000DB407FEFDCF5C9A0895AF92E4
:103B3000BF92CF92DF92EF92FF920F931F93CF939A
:103B4000DF93EC0160E072E080E090E00E94491DAC
:103B50008E01000F111F9801285C3E4F5901C12CA6
:103B6000D12C7601D394A7019601261B370B480B65
:103B7000590BCA01B9010E94E435209134013091FA
:103B8000350140913601509137010E9452340E9414
:103B9000AC35F5017183608360E072E080E090E015
:103BA0000E94491D065D1E4FA7019601261B370B7B
:103BB000480B590BCA01B9010E94E4352091260136
:103BC0003091270140912801509129010E945234DF
:103BD0000E94AC35F80171836083C0905601D0908B
:103BE0005701E0905801F090590168E371E080E0DE
:103BF00090E00E94491DCC0FDD1FCC0FDD1FCE5B76
:103C0000DE4F68537F4F8F4F9F4F0E94E4359B01DB
:103C1000AC01C701B6010E945234688379838A835C
:103C20009B83DF91CF911F910F91FF90EF90DF90D9
:103C3000CF90BF90AF9008956F927F928F929F9296
:103C4000AF92BF92CF92DF92EF92FF920F931F93AA
:103C5000CF93DF9390910201981709F46AC0F82E70
:103C6000E82FEE0FFF0BED55FD4EC591D4910E944C
:103C7000DF2AD093D803C093D7038091DA03806FF3
:103C80008093DA0389E18093D9038FE4809354040D
:103C9000FE0185919491282F227081FD292F80FFAC
:103CA00007C0FE01E20FF11DE20FF11D339602C0C5
:103CB000E0E0F0E0EF010BED13E0C12CD12C8EE140
:103CC000682E90E8792E2FE7822E99249A94FE018F
:103CD000E490F80184899589262D11922A95E9F7B7
:103CE000F601E552FC4F5F01738E8282938AF801E0
:103CF000958B848B6E2D8091D7039091D8030E9471
:103D0000A827F80197838683F501E0862196FEE1D6
:103D1000CF0ED11C025E1F4F28E7C216D104B9F6A0
:103D200040E050E064EC77E280E00E947E27F09271
:103D30000201DF91CF911F910F91FF90EF90DF90E3
:103D4000CF90BF90AF909F908F907F906F9008958D
:103D50001F93CF93DF93EC0111E01093630880E091
:103D600090E0A4EBB2E4FB0184839583A683B78340
:103D700080EF90E09187808780E090E0A0ECB0E455
:103D800080931C0190931D01A0931E01B0931F010D
:103D900080E00E941C1E1A838AEC9FE19E838D8323
:103DA000DF91CF911F910895CF93DF93EC0181E4D0
:103DB00090E0FB019187808780E090E0A4EBB2E483
:103DC00084839583A683B7838BE00E941C1E81E0C9
:103DD0008A8380ED9CE19E838D83DF91CF9108954E
:103DE0000F931F93CF93DF93C82F80EB93E00E9434
:103DF000E62AEC2FEE0FFF0BE756FD4E05911491CE
:103E000080EB93E00E94E62AC0EBD3E081E0888358
:103E100080917C0890917D08A0917E08B0917F08E8
:103E20008BA39CA3ADA3BEA3ECE7F8E010821182A4
:103E30001282138283ED93E090930E0480930D041D
:103E40001A83098389E18B8380E28C838EE125EBE1
:103E500033E0D9011D928A95E9F780E888A38FE7BE
:103E60008F838FEF888FFA8FE98F60E0C8010E94FF
:103E7000A8279C878B871D866B8170E080ED97E07B
:103E80000E94BC37615060935A04AE0163E574E24E
:103E900081E0DF91CF911F910F910C947E2790913B
:103EA0000101981B90930101191624F08AE890E211
:103EB0000C94722480911B01816080931B0182E02D
:103EC0000C94F01E009789F1E0912401F0912501F6
:103ED000E817F90791F480819181909325018093EF
:103EE000240180910F019091100191838083F093C0
:103EF0001001E0930F010895F9013097B1F020818E
:103F0000318128173907C1F7DC012D913C911197B8
:103F10003183208320910F01309110012D933C9328
:103F20009093100180930F0108950895CF93DF932C
:103F3000EC018B819C81009721F00E94621F1C8202
:103F40001B82209721F1E0916408F0916508EC173D
:103F5000FD0741F4888199819093650880936408F6
:103F60000CC0FC01309799F0808191818C179D07DE
:103F7000C1F78881998191838083809168089091AD
:103F8000690899838883D0936908C0936808DF9192
:103F9000CF9108958F929F92AF92BF92EF92FF922E
:103FA0000F931F93CF93DF937C01EB0180E092E0AE
:103FB00090930501809304012C813D814E815F81A6
:103FC00001EC12E169E18FE00E94521B20E030E039
:103FD00040E251E46C817D818E819F810E94523448
:103FE0004B015C0120E030E84AE454E40E94FA36D8
:103FF00018162CF08C829D82AE82BF8208C080E0B1
:1040000090E8AAE4B4E48C839D83AE83BF8380E010
:1040100091E0909305018093040128853985215012
:1040200031093987288737FD08C080911101982F01
:104030009F7B9093110186FF11C0909103019923FA
:1040400059F082E08093630881E0911180E08093D1
:10405000030188E69DE023C083E0F4CF24FF0EC077
:104060008BEB92E19F938F9384E38F938DE28F93F9
:104070000E94031A0F900F900F900F9090911101D2
:10408000892F877F93FD07C0892F837F809311013C
:1040900092FD03C013C08093110184ED9EE10E9444
:1040A0007224C701DF91CF911F910F91FF90EF9084
:1040B000BF90AF909F908F900C94961F81E0F70176
:1040C0008283DF91CF911F910F91FF90EF90BF906E
:1040D000AF909F908F900895CF93DF938091640865
:1040E00090916508009779F0FC01D081C181209101
:1040F0006608309167088217930711F00E94961F97
:104100008D2F9C2FEFCF1092670810926608DF91D9
:10411000CF9108950F931F93CF93DF938C01EB0101
:104120000E9400120E94ED130E946C2086E0809392
:10413000630819A218A21F8E1E8E84E68D8F10921E
:10414000110110921A0181E0F80182838AEF90E256
:104150009683858386EA0E948F1D89E0DF91CF9147
:104160001F910F910C941C1EEF92FF920F93CF930F
:10417000DF937C01EB018D8185301CF48F5F8D8393
:1041800009C08885811106C08AE590E09F838E83EF
:1041900081E0888798856D818C81062E000C770BD5
:1041A000992311F006E301C00BE220E349E451E159
:1041B000082E000C990B0E940F252E813F81215063
:1041C00031093F832E8337FF0CC088EA9EE10E94AD
:1041D0007224C701DF91CF910F91FF90EF900C9463
:1041E000961F81E0F7018283DF91CF910F91FF90BD
:1041F000EF900895EF92FF920F931F93CF93DF9369
:104200007C01EB018D8D81508D8F87FF07C088EA7F
:104210009EE10E947224C7010E94961F68A179A1A5
:10422000645F7F4F79A368A3072E000C880B990B5E
:104230000E94E4359B01AC0107E311E164E18EE1EA
:104240000E94521B80EC90E0909305018093040142
:1042500020912101822F90E00197293010F02DE06C
:1042600001C022E19F938F9384E291E19F938F930A
:104270008DE28F932F930E94031A80E091E0909338
:104280000501809304018E8D9F8D01969F8F8E8FE7
:1042900081E0F70182830F900F900F900F900F90A5
:1042A0000F90DF91CF911F910F91FF90EF900895A4
:1042B000E0910F01F0911001309781F1808191819F
:1042C0009093100180930F0180912401909125011A
:1042D00091838083F0932501E09324011486158651
:1042E000168617861086118612861386148215820A
:1042F00016821782108E118E128E138E148A158AD2
:10430000168A178A108A118A128A138A11A210A299
:10431000158E178E168E148E13821282CF01089579
:10432000AF92BF92CF92DF92EF92FF920F931F93C3
:10433000CF93DF93D901A61BB70BB7FF03C0B1958D
:10434000A195B109FA01E81BF90BF7FF03C0F1953C
:10435000E195F109FF24F394EA17FB0714F0F12C1F
:104360000AC0F42FE52FA9012F2F3E2FF82FE92F98
:10437000CB016F2F7E2F4817590754F4F62FE72FE4
:10438000B9012F2F3E2FF82FE92FCA014F2F5E2F93
:10439000EA01C81BD90B8901061B170B17FF03C0C5
:1043A000119501951109FE01D7FD3196F595E79517
:1043B0006217730714F02FEF01C021E0A0E0F110A5
:1043C00007C0EE24E394F12CA22E220FBB0840C0BC
:1043D000EE24E394F12CA22E220FBB0848175907B4
:1043E0000CF464C06B0120E8C222CD2849F56C01B1
:1043F00030ECC322CD2821F5B82FB695B695B695E9
:104400006B01A0E8BA9FC00CD11C1124D601AD5994
:10441000BB4F6C0127E0C222DD24970102C0220FAE
:10442000331FCA94E2F76901DC90CD28CC92E01BDF
:10443000F10BF7FF04C06A0D7B1DEC0FFD1FA1E01F
:104440000196CCCF6C0130E8C322CD2829F001962B
:1044500048175907BCF72AC06B01B0ECCB22CD2816
:10446000B1F7B62FB695B695B6956C0120E8B29F18
:10447000C00CD11C1124D601AD59BB4F6B0137E0E4
:10448000C322DD24970102C0220F331FCA94E2F732
:104490006901DC90CD28CC92E01BF10BF7FF04C042
:1044A0006A0D7B1DEC0FFD1FA1E0D1CF8A2FDF919C
:1044B000CF911F910F91FF90EF90DF90CF90BF9021
:1044C000AF9008952F923F924F925F926F927F929A
:1044D0008F929F92AF92BF92CF92DF92EF92FF9214
:1044E0000F931F93CF93DF93CDB7DEB7A5970FB68A
:1044F000F894DEBF0FBECDBF4D8F5E8F6F8F78A358
:1045000009A31AA32BA33CA31C0123E0220E311CF8
:10451000FC01329684918DA32AED3FE049E450E4FA
:10452000C701B6010E94073720E030E044E353E4BE
:104530000E943A356B017C010E9474376D8B7E8B33
:104540008F8B988FC701B6010E943535698F7A8F9E
:104550008B8F9C8F00E010E02DA102170CF06CC136
:1045600044E050E0B101CE0101960E94DD3324E029
:10457000220E311C89818987682F880F770B880B61
:10458000990B0E94E435698B7A8B8B8B9C8B2A81EB
:104590002D87622F220F770B880B990B0E94E43531
:1045A0002B013C016B81062E000C770B880B990BBD
:1045B0000E94E4356D837E838F8398876C81062EFD
:1045C000000C770B880B990B0E94E4356B017C0182
:1045D00020E030E0A901C501B4010E9430358823F4
:1045E00041F1A501940169897A898B899C890E948E
:1045F0003A35698B7A8B8B8B9C8BA5019401C30117
:10460000B2010E943A352B013C01A50194016D8154
:104610007E818F8198850E943A356D837E838F835A
:104620009887A5019401C701B6010E943A356B0134
:104630007C018AAD882309F456C0298527FD295FAE
:10464000259525952595022E000C330B8AADA82FB4
:10465000880FBB0B0E94EA370E94E43569877A878E
:104660008B879C879B01AC0169897A898B899C899E
:104670000E945234698B7A8B8B8B9C8B2D8527FD06
:10468000295F259525952595022E000C330B8AADC3
:10469000A82F880FBB0B0E94EA370E94E4356D8774
:1046A0007E878F87988B9B01AC01C301B2010E946A
:1046B00052342B013C0129853A854B855C856D81FF
:1046C0007E818F8198850E9452346D837E838F8393
:1046D00098872D853E854F855889C701B6010E9470
:1046E00052346B017C01298D3A8D4B8D5C8DC70155
:1046F000B6010E94073769877A878B879C872D8947
:104700003E894F89588D6D817E818F8198850E9469
:1047100007379B01AC0169857A858B859C850E9452
:10472000523429A13AA14BA15CA10E9452340E94AB
:10473000AC3569877A878B879C87298D3A8D4B8D1D
:104740005C8D6D817E818F8198850E9407376D8396
:104750007E838F8398872D893E894F89588DC70125
:10476000B6010E9407379B01AC016D817E818F816C
:1047700098850E9451342D8D3E8D4F8D58A10E94F9
:1047800052340E94AC356D837E838F839887298D48
:104790003A8D4B8D5C8DC301B2010E9407376B01CE
:1047A0007C012D893E894F89588D69897A898B8949
:1047B0009C890E9407379B01AC01C701B6010E948A
:1047C000523429A13AA14BA15CA10E9452340E940B
:1047D000AC356D877E878F87988B298D3A8D4B8D71
:1047E0005C8D69897A898B899C890E9407376B0166
:1047F0007C012D893E894F89588DC301B2010E94E9
:1048000007379B01AC01C701B6010E9451342D8DC1
:104810003E8D4F8D58A10E9452340E94AC35DC0170
:10482000CB0129853A854D815E816D857E850E940B
:104830009021182B0F5F90CE812FA5960FB6F8947C
:10484000DEBF0FBECDBFDF91CF911F910F91FF90C3
:10485000EF90DF90CF90BF90AF909F908F907F9020
:104860006F905F904F903F902F9008959C0120781B
:10487000232BB9F49B01207C232B99F4E1E4F1E193
:1048800090E1969FD001A0781124A80F6770E60FE1
:10489000F11D8491AD59BB4F9C91892B8C9381E084
:1048A000089580E00895CF93DF93EB01AB014B5F58
:1048B0005F4F6F5F7F4F88810E948E286B8170E011
:1048C00080ED97E00E94BC37615060935A048C8160
:1048D000807F29F4CE01DF91CF910C94E62ADF91FD
:1048E000CF910895CF93DF93C0916808D091690864
:1048F0002097F1F028813981309369082093680866
:10490000E0916608F0916708309739F02081318195
:1049100039832883D183C0830EC0209164083091ED
:10492000650839832883D0936508C093640803C061
:1049300080E090E00BC09E838D831C821B820E94CE
:1049400058219C838B8381E08A83CE01DF91CF91B4
:104950000895FC019091630880819230F1F48130D8
:1049600061F0823091F0811139C091878CEC93E134
:104970009087878384E39EE233C0818785EC93E14F
:104980009087878384E399E22BC011868DEB93E1B6
:104990009087878384E395E223C09FEF91878230DD
:1049A00099F03CF4882369F08130C1F48DE793E1FC
:1049B00013C0843079F05CF0853081F489EC92E1A9
:1049C0000BC086E993E108C081E593E105C082E26E
:1049D00093E102C084EF92E19087878386E096E0BE
:1049E00021E023839183828383E090E09583848315
:1049F00016820895809163048EBD10926304E4E6EC
:104A0000F4E0808111920DB407FEFDCF8EBD88E0E9
:104A1000E336F807B1F70DB407FEFDCF08952F92E6
:104A20003F924F925F926F927F928F929F92AF923E
:104A3000BF92CF92DF92EF92FF920F931F93CF938B
:104A4000DF9300D000D000D0CDB7DEB74A01A22E50
:104A5000B12C9C012A0D3B1D37FDB4C08038910557
:104A60000CF0B0C09B01200F311D37FDABC060348E
:104A700071050CF0A7C0AB0177FF04C04427552790
:104A8000461B570B477055279B0177FF02C0295FD4
:104A90003F4FE3E035952795EA95E1F777FF08C0AA
:104AA0002150310968E070E0DB01A41BB50BAD01BA
:104AB000602F66956695669570E0077011F06F5FE0
:104AC0007F4FDB01A20FB31FBA83A983390176940C
:104AD000762C662477946794680E791EC12CD12CAD
:104AE00000E010E01301B0E82B0E311C68E070E02C
:104AF000DB01A41BB50BBC83AB8369817A812617CC
:104B0000370709F45FC02830310509F45BC02F3F37
:104B1000BFEF3B070CF44BC0B101600F711FDB010D
:104B2000AD59BB4FBE83AD83D801A60DB71DAD599E
:104B3000BB4F7C0160E070E06A157B05C4F5E0E8DE
:104B4000EE16F104A1F1F7FC26C0FB01EC0DFD1DF2
:104B5000E80DF91DE4912F3FFFEF3F0779F14E2E4D
:104B6000042E01C0440C0A94EAF7FC914F2A4C929F
:104B70004115510581F02730310569F04E2E512C39
:104B80000B8002C0559447940A94E2F7ED81FE81B0
:104B90005080452840826F5F7F4FED81FE813196C6
:104BA000FE83ED83FFEFEF1AFF0A1196C5CF2F5F4B
:104BB0003F4F00581F4FCA0CDB1C9FCF41155105BA
:104BC000E9F6E9CF26960FB6F894DEBF0FBECDBF4B
:104BD000DF91CF911F910F91FF90EF90DF90CF90D9
:104BE000BF90AF909F908F907F906F905F904F900D
:104BF0003F902F9008953FB7F89480916B08909163
:104C00006C08A0916D08B0916E0826B5A89B05C0F0
:104C10002F3F19F00196A11DB11D3FBFBA2FA92F3B
:104C2000982F8827820F911DA11DB11DBC01CD01B8
:104C300042E0660F771F881F991F4A95D1F70895A4
:104C40008F929F92AF92BF92CF92DF92EF92FF929C
:104C50000E94FB254B015C0185E0C82ED12CE12C84
:104C6000F12C0E94FB25DC01CB0188199909AA09C6
:104C7000BB09883E9340A105B10558F021E0C21A56
:104C8000D108E108F10888EE880E83E0981EA11C87
:104C9000B11CC114D104E104F10419F7FF90EF90A5
:104CA000DF90CF90BF90AF909F908F9008951F920C
:104CB0000F920FB60F9211242F933F938F939F93D0
:104CC000AF93BF9380915F0490916004A0916104C1
:104CD000B091620430916A0823E0230F2D3720F44D
:104CE0000196A11DB11D05C026E8230F0296A11D46
:104CF000B11D20936A0880935F0490936004A09391
:104D00006104B093620480916B0890916C08A0914B
:104D10006D08B0916E080196A11DB11D80936B08BE
:104D200090936C08A0936D08B0936E08BF91AF91FB
:104D30009F918F913F912F910F900FBE0F901F90D9
:104D400018952F922FB62F93BF93AF930F921F9268
:104D5000A0E0B2E021E00090860810908708000CE7
:104D6000111C17FC022616FC0226009286081092DF
:104D7000870822270090850811941AF42095019441
:104D80002F4FA00DB21F20917A0800907008020EDC
:104D90000092700820917B0800907108021E00921A
:104DA000710810907808222701141090790818F0E3
:104DB000209511942F4FA10DB21F20917E080090D5
:104DC0007208020E0092720820917F08009073080A
:104DD000021E0092730810907C0822270114109084
:104DE0007D0818F0209511942F4FA10DB21F20912E
:104DF000820800907408020E0092740820918308C3
:104E000000907508021E00927508109080082227F5
:104E100001141090810818F0209511942F4FA10DC6
:104E2000B21FB093BF00A093CF0020916F082A95C6
:104E300020936F08222389F428E020936F08BB2772
:104E4000A0915304A150B040A0935304A0915904E1
:104E5000A150B040A093590441F41F900F90AF911E
:104E6000BF912F912FBE2F901895A0910A01A030CD
:104E7000A1F7B0930A0178943F934F935F936F9398
:104E80007F938F939F93EF93FF9311240E945B274F
:104E900010920A01FF91EF919F918F917F916F91F5
:104EA0005F914F913F911F900F90AF91BF912F91C4
:104EB0002FBE2F9018950F931F93CF93DF93C3E5C9
:104EC000D4E010E00FEF8881EA81FB818F3F21F071
:104ED000EF2B51F4088308C0309721F06C817D815D
:104EE000812F0995898188832696113011F011E070
:104EF000EACFDF91CF911F910F91089526E0829F15
:104F0000C0011124FC01ED5AFB4F7383628355836A
:104F10004483672B09F010828091550490915604C8
:104F2000892B31F480915B0490915C04892B59F0BA
:104F300082E08093BF001092CF0091E09093C10077
:104F4000809371000895109271001092C10008952D
:104F5000FC012591349121FF0BC0FC01E60FF11DEE
:104F6000E60FF11D329625913491820F931F08951B
:104F700020FF08C0E32FF0E0E491F0E031968E0FBF
:104F80009F1F0895019608959F92AF92BF92CF926E
:104F9000DF92EF92FF920F931F93CF93DF9330ED49
:104FA000E32E37E0F32E4EE1942ECC24C394D12C83
:104FB0000BED13E0C0E0A80167ED73E08C2F0E94B9
:104FC0008E286091D90370E0C7010E94BC37615000
:104FD00060935404CF5F025E1F4FC43061F780912D
:104FE000DA03807F09F04BC00EEE13E0C0E0D0E0A2
:104FF000F80160816F3F59F13197A080B12C809109
:10500000D7039091D8030E94A827F501EE0FFF1F48
:10501000EE0FFF1F9C9E90019D9E300D1124E20F0C
:10502000F31FE552FC4F97838683F8017097118236
:105030001082CE010496960102C0220F331F8A957A
:10504000E2F7C9019091DA03892B8093DA03219664
:10505000025E1F4FC430D10559F68091DA03807F7C
:1050600009F0A6CFDF91CF911F910F91FF90EF90A4
:10507000DF90CF90BF90AF909F900C94DF2ADF918C
:10508000CF911F910F91FF90EF90DF90CF90BF9045
:10509000AF909F900895CF93DF93DB015496CD910D
:1050A000DC9155971596EC911597E80FEF73F0E0AA
:1050B000EE0FFF1FEE52FC4E259134913B832A8365
:1050C000811102C0198218C056968C915697882378
:1050D00099F057969C91579758968C91589796FFB0
:1050E00005C08F7358968C93589706C0807C21F02A
:1050F00012968C9188830FC05496ED91FC91559730
:1051000011968C91119781835496ED91FC9155974E
:1051100012968C918083DF91CF9108958F929F9208
:10512000AF92BF92CF92DF92EF92FF920F931F93B5
:10513000CF93DF9300D000D000D0CDB7DEB7982F4B
:105140007B018A01FA01A489B5898330F1F4648D69
:105150006623D9F0258D81E0820F858F30E0462FC0
:10516000437050E02417350784F0E62FE695E69566
:10517000F0E0EE0FFF1FEE52FC4E25913491139696
:105180003C932E931297F801158EF801268922235D
:1051900009F465C0808D4789E82FEF73F0E0642F34
:1051A0006F7370E0E617F7070CF456C04078807C08
:1051B0008034C9F08038B1F1811146C011968C91CC
:1051C0001197022E000C330B280F311D47FD08C02C
:1051D00037FD05C0203831051CF02FE701C020E065
:1051E00011962C9331C012966D917C911397FB010F
:1051F000E20FF11D27FDFA959F0147FD06C0F7FD5F
:1052000006C02115F0E43F072CF4832F05C020E0F1
:1052100080E002C02FEF8FE312962C931297139623
:105220008C9312C08C91022E000C330B280F311D71
:1052300047FD09C037FD06C02F3F310521F01CF0A6
:105240002FEF01C020E02C93D80158968C915897ED
:10525000807C58968C9303C08F5FF801808FD801B3
:105260005B963C915B97232F207E2038B9F18C917F
:105270008823A1F15A964C915A97E32FEF71F0E0F1
:10528000642F6F7170E0E617F70724F43F5F5B96B9
:105290003C9324C046FD02C030E401C030E2231339
:1052A00004C045FD0FC020E00FC0F801318D211171
:1052B00001C032953F703F3011F0830F01C080E094
:1052C000205E02C080E020E8B8012D839E830E940A
:1052D0004B282D81D8015B962C939E819C5F81E0A9
:1052E000B82E01C0BB0C9A95EAF7CC24CA94DC2CEA
:1052F000E0E8AE2ED80113968D919C9114970097FB
:1053000009F042C1F801828924E0829FE00DF11D7D
:1053100011246681778144E050E0CE0101960E941D
:10532000DD33D80152962C91822F90E04801B4E0F1
:105330002B9F800C911C1124F40166817781AB01B5
:105340004F5F5F4F57834683E981E03460F4D801B3
:10535000EC93B8018E2F0E944B28F801828D85FFB7
:10536000C9CF138EC7CFE03640F4F0E0FF97D801E5
:105370001496FC93EE931397BDCFE03708F040C02E
:10538000E13679F030F4E03609F0B4CFF801158257
:10539000B1CFE336F9F0E43609F0ACCFF801148E62
:1053A000A9CFD40119963C911997332369F0315054
:1053B00019963C93FC013296EE0FFF1FEE0FFF1F74
:1053C000E00FF11F60819BC0222341F02150F801C2
:1053D000228B90CFD8015B96AC928CCFD7011396DD
:1053E0008C9113978B2513968C93D8015496ED913D
:1053F000FC91559711821496DC92CE9213977ACF36
:10540000E7FD3CC06E5F7F4FD40117967C936E938F
:1054100016978E2F90E0FC01E057F109E730F10577
:1054200008F068CFEA5AFF4F8A810C94E437F801FC
:10543000848F158E5FCFD80115968C935BCFF801C2
:105440009581890F858356CFD70112968C9352CFC1
:10545000F7019281890F82834DCFD80111968C93E9
:1054600011975496ED91FC915597818343CFF801A4
:1054700082830488F589E02D80833CCF3E2F3295CE
:1054800037703F5F430F511DD40117965C934E93C5
:105490001697EF70E23071F038F4EE2309F449C04A
:1054A000E13009F44AC026CFE430A1F1E53009F437
:1054B0005EC020CF223008F01DCF4A81FC01329619
:1054C000EE0FFF1FEE0FFF1FE00FF11F8081481747
:1054D00009F410CF313011F08B8101C080E02F5FD3
:1054E000F801228B4801F4E02F9F800C911C1124BD
:1054F000D40118964C93189719968C93642FF70142
:10550000808191810E94A827D40117969C938E9345
:105510001697F0CE8A81F801828F313011F08B819D
:1055200001C08FEFD80159968C9359975B961C92C6
:10553000E1CE8A81F801838BDDCE3130A1F08A8102
:105540008295880F880F807CD80158968C93589745
:105550008B8156968C93323011F08C8101C080E0A3
:10556000F801878BC7CED80156961C92C3CE8A818C
:1055700090E0313021F0982F88272B81822B0196E3
:10558000F80194838383B6CE8F3FBFEF9B0721F052
:105590000197F8019483838326960FB6F894DEBFB3
:1055A0000FBECDBFDF91CF911F910F91FF90EF9074
:1055B000DF90CF90BF90AF909F908F90089540E084
:1055C00050E060E070E080E00C947E27CF93DF93A2
:1055D000EC0140E050E060E070E081E00E947E2756
:1055E000888190E0DC01AA0FBB1FAA0FBB1FA8583F
:1055F000B74F2EE1289FF001299FF00D1124E552AD
:10560000FC4FC489D589488159816A817B814D933A
:105610005D936D937C931397B58BA48BDF91CF91A2
:105620000895CF93DF93CDB7DEB762970FB6F894A6
:10563000DEBF0FBECDBF789484B5826084BD84B5D3
:10564000816084BD85B5826085BD85B5816085BD7D
:1056500080916E00816080936E0010928100809135
:1056600081008260809381008091810081608093BD
:105670008100809180008160809380008091910002
:10568000826080939100809191008160809391006D
:10569000809190008160809390008091C10084602F
:1056A0008093C1008091C10082608093C10080918D
:1056B000C10081608093C1008091C30081608093AC
:1056C000C3008091C00082608093C0008091C200BE
:1056D00081608093C20080917A00846080937A0018
:1056E00080917A00826080937A0080917A00816054
:1056F00080937A0080917A00806880937A0081ECB0
:1057000080937C0085B1806F85B9249884B1866EC2
:1057100084B95E9A5F988AB1806D8AB9769A6E98DC
:1057200081B3806F81BB899880B38D7080BB80E529
:105730008CBD81E08DBD0E9420265F9A0E942026AC
:105740005E985C98E9EDF1E08DE08E0F94919EBD3E
:1057500000000DB407FEFDCF31968E13F7CF5C9A93
:1057600081E88093640081E080936500809164000B
:105770008E7F8093640080917A00806480937A00A9
:1057800080917A0086FDFCCF00917800109179001D
:105790000E94FB2520E030E0980111270027600FD0
:1057A000711F821F931F611571058105910511F00D
:1057B0000E94D133809164008160809364003E9A9E
:1057C0003F9A81E080935A01109271001092C100BB
:1057D00080E1E8E7F8E0DF011D928A95E9F78CE0C7
:1057E000E3E5F4E0DF011D928A95E9F78FE7809306
:1057F000780880937C08809380088093840881E0F7
:1058000090E090938708809386088AE582BF82E1C2
:1058100089BD09B400FEFDCF82E48093C00081E021
:105820008093C30090E49093C4008093BF008FEFF7
:105830008093D1001092900089E08093910087EED0
:1058400093E090939900809398001092DA0388E790
:1058500098E09093F0038093EF038CE798E09093A7
:105860000E0480930D0480E898E090932C048093BC
:105870002B0484E898E090934A04809349040E94A2
:10588000FA240E94FA2400E010E0C8010E94971D4B
:105890000F5F1F4F05301105C1F790916808809187
:1058A0006908EBE5F1E03E2F2F2F90838183379637
:1058B000C901B1E0EC38FB07B1F785E891E09093BE
:1058C00069088093680890910F0180911001ECE8BD
:1058D000F1E03E2F2F2F90838183B296C90123E000
:1058E000EC3AF207B1F78AE893E0909310018093C5
:1058F0000F0185E39DE10E9472242FB7F8948091F7
:105900005F0490916004A0916104B09162042FBF84
:105910008093AC039093AD03A093AE03B093AF0319
:105920002FB7F89480915F0490916004A091610476
:10593000B09162042FBF4091AC035091AD036091D0
:10594000AE037091AF0384179507A607B70758F405
:1059500083B7817F83BF83B7816083BF889583B717
:105960008E7F83BF56C68196A11DB11D8093AC0367
:105970009093AD03A093AE03B093AF032FB18CB15E
:1059800093B1482F50E04095509540745527E3E07F
:1059900055954795EA95E1F7892F90E08095909588
:1059A000807199279595879595958795842B209556
:1059B000207F222E282A10911A011095122110936F
:1059C000110120921A01209112013091130140918E
:1059D000140150911501609134017091350180914D
:1059E0003601909137010E9452344B015C01609363
:1059F00034017093350180933601909337012091E3
:105A000016013091170140911801509119016091D0
:105A100026017091270180912801909129010E940F
:105A200052346B017C0160932601709327018093AF
:105A300028019093290140901C0150901D01609015
:105A40001E0170901F012091560130915701409125
:105A5000580150915901C301B2010E945234698327
:105A60007A838B839C836093560170935701809354
:105A7000580190935901809163089CEF980F9230E0
:105A800008F049C1843089F0109216011092170174
:105A90001092180110921901109212011092130124
:105AA000109214011092150136C1812F877F8093C7
:105AB000110113FFB7C026FE03C074EF372E01C0DB
:105AC000312C25FE02C06CE0362E27FE02C005EF09
:105AD00001C000E024FC0DE010911B012090230187
