:100000000C9471090C948E090C948E090C948E0931
:100010000C948E090C948E090C948E090C948E0904
:100020000C948E090C948E090C948E090C948E09F4
:100030000C948E090C948E090C948E090C948E09E4
:100040000C948E090C948E090C948E090C948E09D4
:100050000C948E090C948E090C948E090C9497259F
:100060000C948E090C948E090C948E090C948E09B4
:100070000C948E090C948E090C948E090C948E09A4
:100080000C94E1250C948E090C948E090C948E0925
:100090000C948E090C948E090C948E090C948E0984
:1000A0000C948E090C948E090C948E095B295F299F
:1000B000642968296D2957297729084AD73B3BCEFF
:1000C000016E84BCBFFDC12F3D6C74319ABD568357
:1000D0003DDA3D00C77F11BED9E4BB4C3E916BAA0F
:1000E000AABE000000803F05A84CCDB2D44EB9385E
:1000F00036A9020C50B9918688083CA6AAAA2ABE45
:10010000000000803F0040400DF8E8F0E8F0E8E033
:10011000F8E0F8E000E000F818F8180818081818D7
:10012000081010181018102800280018F020F820C7
:10013000F020F010E010E000E000E0F0F080360E7B
:10014000EBE51510EB1015E515F00BFB0BFB15059A
:10015000EB05F5FBF5FBEBF0F51BE005E005EBFB34
:100160000B1B2005200515FBEBF0C0F015F040F04F
:10017000F505001000100B05804908C9DBF709C020
:1001800009DBEEDB0000DB00DB2500C925F7F737D4
:10019000DB0909400925EE372509F7804A0AEEE513
:1001A000C012C012D225D225E51212E5401240122B
:1001B0002E252E251B12C91200DB00DB3712E509A4
:1001C000002500251B09080804FCFC03FC03FC03B4
:1001D000030303FC03FC03FCFCD5F08D14A1C881D0
:1001E000CFD9F1AF2000101002F8F80808F808087D
:1001F000F89924428181422499804020A0A0204087
:10020000F008E41A09056505656505650565056578
:1002100065056505656505650565056505091AE4F6
:1002200008F04020A0A0204080101009F9F9FDFD41
:10023000FDFC04FC03FD08F8FCFDFC0404FD0404C3
:10024000FD040404FD03F80803030808000001018D
:1002500008020204FFFE00FEFEFF01FFFE00010097
:10026000FF01000104FCFB02FB02FCFC02FC02FC9F
:1002700003FC03020303FCFBFFFEFFFE02FBFFFF88
:10028000FF0306FCFBFCFCFCFC0202020202030270
:10029000FB02FC02FCFC02FC02FC0304FCFBFC0372
:1002A000FC03FF00FF000203020302FB04FCFBFC53
:1002B00000FC00FF03FF030200020002FB05FCFB41
:1002C000FC02FC02FD03FD03010301030202020222
:1002D00002FB02FCFB02FBFFFEFF0307FCFDFEFB33
:1002E000FEFB02FBFCFEFCFFFCFF02FF02FF020123
:1002F000020100030003FC0307FDFB00FB00FB02FF
:10030000FD02FD02FE02FE00000000FC00FCFCFC01
:1003100003FF00020308FEFB00FB00FB02FD02FDE1
:1003200002010003FE03FE03FC01FC01FCFDFCFDD9
:10033000FEFB0001020306FDFB00FB00FB02FD02C9
:10034000FD02FE02FE00000000FC00FCFCFC0307B6
:10035000FEFB00FB00FB02FD02FD020102010003A7
:100360000003FE03FE03FC01FC01FCFD03FCFBFC9F
:1003700003FCFC0202020302FB04FCFBFC03FCFB8B
:10038000FFFEFFFE02FB02FB020303FCFBFC02FC80
:1003900003FF03FF03010105FCFBFCFEFC03FCFF64
:1003A000FCFFFDFF01FBFDFF0103FDFF05FEFB015F
:1003B000FB01FB01010101FF03FF03FD01FD01FD45
:1003C0000003FEFB00FBFFFBFF03FE03000304FC36
:1003D000FBFCFEFCFFFC03FCFF02FF02FB02030927
:1003E000FEFB01FB01FB02FC020201030103FE0311
:1003F000FE03FC01FC01FCFDFCFDFEFBFEFF02FF19
:1004000002FF020203FCFB02FBFCFF02FFFCFFFCFD
:100410000304FCFB02FBFCFF02FFFCFFFC03FC03EC
:10042000020306FCFB00FB00FB02FD02FD020102D1
:100430000100030003FC03FC03FCFB07FEFB01FBC4
:1004400001FB02FC020201030103FE03FE03FC01A7
:10045000FC01FCFDFCFDFEFB0AFDFB00FB00FB02BA
:10046000FD02FD02FE02FE01FF01FFFCFF01FF0293
:100470000002000202020201030103FC03FC03FC70
:10048000FC05FEFB00FB00FB02FD02FD0203FCFD80
:10049000FC03FC00020002FFFCFFFDFF03FF040B56
:1004A000FCFCFDFBFDFB01FB01FB02FC02FC02FE70
:1004B00002FE01FFFDFFFCFEFCFEFCFCFDFF01FF58
:1004C00002FF0202020201030103FD030FFCFCFD17
:1004D000FBFDFB01FB01FB02FC02FC02FE02FE0134
:1004E000FFFDFFFCFEFCFEFCFCFDFF01FF01FF0227
:1004F0000002000202020201030103FD03FD03FCEE
:1005000002FC02FC00FC00FDFF03FDFB01FB01FB04
:1005100002FC02FC02030BFCFCFCFFFCFCFDFBFDEF
:10052000FB02FBFDFF01FF01FF02000200020202CD
:100530000201030103FD03FD03FC02FC02FC00FCBD
:1005400000FDFF0AFCFCFDFBFDFB02FBFCFCFCFECE
:10055000FCFEFDFFFDFF01FF01FF020002000202A1
:10056000020201030103FD03FD03FC0204FCFBFC8A
:10057000FEFCFEFDFFFDFF00FF01FB01030AFCFC8A
:10058000FDFBFDFB01FB01FB02FC02FC02FE02FE87
:1005900001FF01FFFDFF01FF020002000202020253
:1005A00001030103FC030AFCFCFDFBFDFB01FB0155
:1005B000FB02FC02FC02FE02FE01FF01FFFDFFFD4B
:1005C000FFFC00FC00FC02FC02FD03FD0302030231
:1005D000FDFE00FB00FB000309FEFB00FB00FB022D
:1005E000FD02FD0201020100030003FE03FE03FC05
:1005F00001FC01FCFDFD0101FDFCFDFEFB01FC0217
:1006000002FC01FF02FF0302FFFBFFFFFF02FF03EB
:10061000802E08F7E92517DB1709E9F7E9E5FBE57F
:10062000FBF70E090E1BFB1BFB09E9DB17C0FB25C3
:100630001740FB0000000000000000000000000068
:100640000000000000000000000000803708C0EE3D
:10065000EE1B121B40EED2EE001B001B2EEEEE0036
:1006600000EE00EE1200C0EEC9E540EE37E5802650
:100670000809001B13E513F700EEF7E500E500F7A6
:100680001309131B001B0012F7E513C0ED1B1340E9
:10069000ED00000706000000000000000000000060
:1006A000000000000000000000000000000206FD45
:1006B00005D805CF05A6057D056C0543051605097A
:1006C00005CC049F04960400000000000000000018
:1006D000000000810458043B04220411040404DFD8
:1006E00003CE03C103AC0397038A0379036C034F62
:1006F0000336031503F802DB02D202BD02AC029BF3
:100700000282027502640200000000000000000086
:10071000000000535441525420574156452025644F
:10072000005741525020544F204143452100474536
:100730005420524541445921000072017450274011
:1007400061000000000072017450254029416100E1
:1007500000007201748012410641610000007216AF
:10076000746E9101321D4A61000000007216746EB1
:100770009101CE294A6100000003081700200021E2
:100780000029002F00350046005700040001020335
:10079000746E720F820580006161746E9206018032
:1007A0000261920701800361741F40740061194166
:1007B0001C4120412141254128412C412D42610D00
:1007C000401040144015400D401040144015406149
:1007D00082044661030511001D001E001F00200059
:1007E00004000102037478910146721482048000AF
:1007F000616161612043264361030715001C0021EC
:1008000000260027002E0035000400010203746E4C
:100810007208820461746E820561746E8206616181
:1008200028472047214F6125471C471E4F61104034
:100830000D4010400D4010400D4010400D40104341
:100840000B43064F61030E2300340035004600536E
:1008500000590062006B0072007D00800083008AF6
:100860000091000400010203746E7212920602826B
:1008700007920602820880006161746E84409209CA
:1008800002820A920902820B800261920C02820D9E
:10089000920C02820D800361741F40740061741019
:1008A0009100F841810061254400402545194361CC
:1008B000264528452A4361204314412143154128F8
:1008C00043610D4F610E4F61084509451043618238
:1008D00004468205456182044782044082044082C6
:1008E000044161031531004800490062006F007542
:1008F000007E00810088008F00920099009E00AB6E
:1009000000BC00CF00E000F100040115012D01043E
:1009100000010203746E720F82068207820682084B
:100920008209820A820B820C80006161746E920DD2
:1009300002820E920D02820F921002821192100218
:10094000821280026192130682149213068214802E
:100950000361741F4074006174109100F8418100BC
:1009600061145F61004F1747154761004F16471725
:100970004761195F61004F1C471E47611B4B1953AC
:1009800061004B174320431C431943174361084040
:1009900000400F411441174108410F4100436108D5
:1009A0004000400F411441174108410F41144117C5
:1009B000416108410B410F411241144117411B4154
:1009C0000041610D400040144119411C410D41148A
:1009D000410043610D400040144119411C410D414B
:1009E000144119411C416110411441174119411C26
:1009F0004120412541284161820440820440820413
:100A000040820440820582044082044082044061A6
:100A10008205418205418205418205416103091930
:100A200000230024002C003200380044006100A2A2
:100A3000000400010203746E7212920601800061CC
:100A400061746E92070180026192080180036174F3
:100A50001F407400617504741F9100F843648100A5
:100A60006134400040284000443940004238400092
:100A7000402C400048314000402540004461014086
:100A800000400D400040014000400D4000400D403E
:100A90000040014000400D40004001400040014046
:100AA00000400D400040014000400D4000400D401E
:100AB0000040014000400D400040014000406141C5
:100AC00082044082044282054182044282044082C0
:100AD000044282054182044061031735005B005CDB
:100AE000006F009A00A000A900AC00B500B800BDDE
:100AF00000C200C500C800CD00D200D500D800E17A
:100B000000E400F9000E0115010400010203746EF7
:100B100072129206018207820882068209820A8284
:100B20000B820C820D820E820F8210820C82118247
:100B30000B80006161746E9212098213821492120A
:100B400001821382148002619215028216921502AC
:100B50008216921502821692150282169215028250
:100B600016921502821692150282169215028216AC
:100B7000800361741F4074006174109100F841811A
:100B80000061165F611B431A431B431A53611A5FCE
:100B90006116571B47611F4B1D53611D5F61205F2D
:100BA0006120571B47611A4B165361165F61205F26
:100BB0006116431A431B431D5361005F61274200C6
:100BC0004227420042294100412743004126430079
:100BD000456127420042274200422241004127430B
:100BE0000041264300456182044682054561820436
:100BF0004682044082044082044261030B1D002FA0
:100C00000030003A00400046004D00500057005EA2
:100C10000065000400010203746E94411172128297
:100C20000582088209820A80006161746E844092A4
:100C3000060F80026192070F800361741F407400E9
:100C400061185919431841610D47618204428204B9
:100C500042611B591C431B416122592342224261BC
:100C600027592843274161032047007E007F00A2C7
:100C700000C600CC00D700E200ED00FC000D011E14
:100C8000012F01400151016201650168016B016E94
:100C90000171017A017D018A019D01B201CB01CF71
:100CA00001D601E001FC011B020400010203746E85
:100CB00072128205820682078208820582068207F6
:100CC00082088209820A820B820C820D820B820CBE
:100CD000820E820F8210821182128213821182147C
:100CE000821580006161746E92160282179216025C
:100CF000821792180282199218028219921802829F
:100D0000199218028219800261746E921A0E821B67
:100D1000921A0E821C921A0E821B921A0E821C923A
:100D20001D02821E921D02921F03800361741F40E8
:100D3000740061004F1E4319431E43004361004F7E
:100D40001C4319431C43004361004F1243154317D2
:100D500043004361004912420042154317431943BF
:100D600000436100491E4000401E4000421E4319DE
:100D70004315476100491C4000401C4000421C4391
:100D800019431747610049124000401240004212C7
:100D90004315431947610049124000401240004288
:100DA000154317431C476100491E4000401E400088
:100DB000421E43194317476100491C4000401C4034
:100DC00000421C4319431E4761155F61175F61199B
:100DD0005F611C5F61175F611C551541174121451B
:100DE000611E5F61124300410B4100430B41005102
:100DF00061124300410B4100430B41004B1741126C
:100E000041004161124300410B4100430B41004549
:100E10000B4100430B41004361124300410B410071
:100E2000430B4100430B4100430B4117411241006A
:100E3000416182044661820442820442618204422A
:100E4000820440820440618204428204428204425D
:100E5000820442820442820442820442820440822A
:100E6000044061820442820442820442820442823B
:100E7000044282044282044082044082044082048C
:100E80004061820440820440820440820440610345
:100E90001633005700580072009D00A300AC00AF4D
:100EA00000B600B900BC00C300C600C900D000D71E
:100EB00000DC00E100F200030114011B0104000149
:100EC0000203746E721182068207920801820982FF
:100ED0000A920B01820C820D920601820C820E8214
:100EE0000F821080006161746E92110F9212019254
:100EF00013019211039212019213019211038002C5
:100F000061921402821592140282159214028215C3
:100F10009214028215921402821592140282159282
:100F2000140282159214028215800361741F4074AA
:100F3000006174109100F841810061195F611957D7
:100F40001B43174361175F61195F61195715431BF5
:100F500043611B5F61155F611757124419426117A6
:100F6000571B431C43611C43195B61195B154361AB
:100F70000D4300410D40004210400040124000422D
:100F80006109430041094000420B4000400D400010
:100F900042610B4300410B4000420D4000400F40B6
:100FA0000042618204468205456182044682044013
:100FB00082044082044261574156455320535552A2
:100FC00056495645443A2025640047414D45204F37
:100FD000564552000102040810204080002054DED3
:100FE00023BC4AAC0000B040E0408000000000009C
:100FF0000000000000000000000000000000C080B1
:10100000E090D830DC9464CB76D86000000A59AF09
:1010100051BE45AF608006081E497B8E54B8608083
:10102000000000000000000080D0701CE3563F125A
:101030000A0403A1D029F82CD86C1A000000000182
:10104000020D156A5A25D24C5850A0020F31CDBE60
:10105000D5000000000000F42A378AC541806010E6
:10106000D86A5F2275170C03010000000000000021
:10107000000000000001000305070D0080E53F4A65
:10108000050000301A546A1A64152F88950B040560
:10109000030101000000000000000000000000004B
:1010A000000000008080C0A06038141B0401010013
:1010B00000000000000000000001020F1A2E34584A
:1010C000E0406080C00080000000000006030407CC
:1010D0000403050201000100000000000000000000
:1010E0000000000000000000000000000000000000
:1010F0000001010102050603060506043E0408047A
:101100003E001C221C003E221C003E203E002C2AD9
:101110001A0000003E2222003E0A34003A2A2A0029
:101120003812123C00023A02003A2A2A6B075D0785
:101130005107450739078F0E670CFB0BD90A1D0AAB
:10114000E3084508F907D40779075354415254007E
:10115000455641444520320050524F4752414D4D73
:10116000494E473A0A562E20504F50410A4C2E20E5
:101170005354494C4C0A472E20475249534F474F2E
:101180004E4F0050524F4752414D4D494E473A0A3B
:10119000442E20425249474E4F4C490A532E204C70
:1011A000454D4D4F4E530A412E2044454E4E495316
:1011B0000050524F4752414D4D494E473A0A4D2E2D
:1011C00020534348574152545A0A4A2E204741520D
:1011D0004349410A4D2E2054494E544955430A0073
:1011E0004152543A0A4D2E2054494E544955430A0F
:1011F0004A562044414C454E0A4A44204A4F4E45E7
:10120000530A4A2E20474152434941004D55534904
:101210004320616E64205346583A0A4A2E204741C3
:101220005243494100435241465445442042593AB1
:101230000A4D4F445553204352454154450A4445B5
:1012400043454D42455220323031370041535341DE
:10125000554C5400424F4D4245520053434F555454
:101260000000000C011C012D013F01520166017BB1
:10127000019101A901C301DD01FA011802380259E7
:10128000027D02A302CB02F602230353038503BBB4
:1012900003F30330046F04B304FA0446059605EB28
:1012A000054606A5060A077507E7075F08DF086613
:1012B00009F5098C0A2D0BD70B8B0C4A0D140EEB7C
:1012C0000ECE0FBE10BD11CB12EA1319155A16AE71
:1012D000171619941A291CD61D9C1F7D217B239754
:1012E000250011241FBECFEFDAE0DEBFCDBF11E035
:1012F000A0E0B1E0E6E7FEE602C005900D92AA305C
:10130000B107D9F728E0AAE0B1E001C01D92A838E2
:10131000B207E1F70E94512A0C941A330C94000092
:10132000FF920F931F93CF93DF938C01EB01F0900B
:101330000E0182E0F81210C09D8D91509D8F1916FC
:10134000E4F584E08093630881E0F80182838AEC0D
:101350009EE0968385833AC0809126019091270173
:10136000A0912801B091290188879987AA87BB8716
:1013700020E030E040E853E460915601709157015D
:1013800080915801909159010E9492336C877D871A
:101390008E879F87F1E02091340130913501409193
:1013A0003601509137016C817D818E819F81FF12C2
:1013B00008C00E947034181624F681E0F801828378
:1013C00005C00E943A361816C4F7BBCFDF91CF9103
:1013D0001F910F91FF9008958F929F92AF92BF92AD
:1013E000FF920F931F93CF93DF938C01EB0185E066
:1013F0008093630810922201812C912C40EAA42E44
:1014000041ECB42E80921C0190921D01A0921E010D
:10141000B0921F018C8D887F8C8F20E030E040E8F7
:1014200053E4609156017091570180915801909159
:1014300059010E9492336C877D878E879F871F8E0C
:101440001E8E888E998EAA8EBB8E2091210133E04C
:10145000822F632F0E94E23691112EC030930E012D
:1014600020E030E040E054E46091340170913501B7
:1014700080913601909137010E9491336C837D8376
:101480008E839F8380E090E0A0E2B1E4888B998B0B
:10149000AA8BBB8B66E070E080E090E00E94891C24
:1014A00063507109810991090E9424356C8B7D8BF1
:1014B0008E8B9F8B86E0B7C020FD8BC082E080932F
:1014C0000E010E940C33862F8170F82E60FD05C03E
:1014D0006BED7FE089EC90E403C060E070E0CB014D
:1014E000812C912C20E8A22E23E4B22E8C829D82A6
:1014F000AE82BF820E94B436A50194010E94473695
:101500009B01AC0160915601709157018091580187
:10151000909159010E9492336C877D878E879F87B7
:101520008090260190902701A0902801B090290179
:101530006CE370E080E090E00E94891C625E7F4F67
:101540008F4F9F4F0E9424359B01AC01C501B40110
:101550000E949233688779878A879B8780912001D0
:1015600090E09C012A5F3F4F032E000C440B550B6B
:101570006AEF7FEF681B790B072E000C880B990B25
:101580000E94AD1C0E9424356C8B7D8B8E8B9F8BB3
:10159000188A198A1A8A1B8A8091200167EE7FEFC8
:1015A000681B7109660F771F072E000C880B990BBB
:1015B0000E942435688F798F8A8F9B8FF11003C02A
:1015C00084EB90E002C080E090E09F8F8E8F84E0FB
:1015D0002AC081E080930E0120E030E040E054E436
:1015E00060913401709135018091360190913701FD
:1015F0000E9492336C837D838E839F8380E090E092
:10160000A0E2B1EC888B998BAA8BBB8B80912601D1
:1016100090912701A0912801B0912901888799878D
:10162000AA87BB8782E00E945C1D90910E019230D8
:1016300029F0933031F02DE331E005C028E731E0A7
:1016400002C02BE931E03B832A8380912001899FEE
:10165000C0011124449690930D0180930C0181E008
:10166000F801828380E999E096838583DF91CF91A9
:101670001F910F91FF90BF90AF909F908F90089512
:10168000CF92DF92EF92FF92CF93DF93EC01C09065
:101690002601D0902701E0902801F09029016CE20A
:1016A00071E080E090E00E94891C6659710981090F
:1016B00091090E9424359B01AC01C701B6010E942B
:1016C0009233688779878A879B876EE070E080E035
:1016D00090E00E94891C67507109810991090E945C
:1016E00024356C8B7D8B8E8B9F8B6EE070E080E061
:1016F00090E00E94891C67507109810991090E943C
:101700002435688B798B8A8B9B8B20E030E048E412
:1017100052E4609156017091570180915801909167
:1017200059010E9491336C877D878E879F87C09077
:101730001C01D0901D01E0901E01F0901F0166E099
:1017400070E080E090E00E94891C9B01AC012F5F5B
:101750003F4F4F4F5F4FA0912001B0E00E944533B3
:101760000E9424359B01AC01C701B6010E9492334F
:10177000688F798F8A8F9B8F68E671E080E090E0B8
:101780000E94891CDC01CB01845B9109A109B1098C
:1017900099A388A3DF91CF91FF90EF90DF90CF9036
:1017A00008950F931F93CF93DF938C01EB019C8DD2
:1017B000987F94609C8F1B821A826CE370E080E0BB
:1017C00090E00E94891C625E6D8F81E0F801828347
:1017D00081EF9BE096838583DF91CF911F910F91DD
:1017E00008958F929F92AF92BF92CF92DF92EF9225
:1017F000FF920F931F93CF93DF93EB012D8D215019
:101800002D8F27FF9DC08C0180910B01C09034016A
:10181000D0903501E0903601F0903701882311F126
:1018200060E072E080E090E00E94891C812C32E050
:10183000932EA12CB12CA5019401261B370B480B2C
:10184000590BCA01B9010E9424359B01AC01C701A3
:10185000B6010E9492336C837D838E839F838CEFCD
:101860009FEF21C060E072E080E090E00E94891C60
:10187000812C22E0922EA12CB12CA5019401261BD3
:10188000370B480B590BCA01B9010E9424359B0143
:10189000AC01C701B6010E9491336C837D838E83B6
:1018A0009F8384E090E09F8F8E8F81E090910B0169
:1018B000911180E080930B01C0902601D090270108
:1018C000E0902801F090290168EC70E080E090E061
:1018D0000E94891C64567109810991090E9424356E
:1018E0009B01AC01C701B6010E94923368877987DA
:1018F0008A879B8720E030E040E454E46091560101
:101900007091570180915801909159010E94923332
:101910006C877D878E879F8780E090E0A0E0B0E4B1
:10192000888F998FAA8FBB8F86E091E09B838A83F3
:1019300081E0F801828388E492E19683858303C085
:1019400021E0FC012283DF91CF911F910F91FF9045
:10195000EF90DF90CF90BF90AF909F908F900895C1
:10196000CF93DF93EC01FB011482CB0104960E941C
:10197000E92383E00E94301E81E08A8383E09DE0BA
:101980009E838D83DF91CF9108950F931F93CF9303
:10199000DF93EB0128853985215031093987288764
:1019A00037FF29C08C018C818F5F8C8390916308F5
:1019B000923019F4833084F004C0933069F4863097
:1019C0005CF088EE9DE10E94B223C801DF91CF91C7
:1019D0001F910F910C94D61E83E00E94301ECE0101
:1019E00004960E94E92381E0F801828383E09DE070
:1019F0009683858303C021E0FC012283DF91CF9190
:101A00001F910F9108954F925F926F927F928F92E4
:101A10009F92AF92BF92CF92DF92EF92FF920F937D
:101A20001F93CF93DF931F92CDB7DEB73C012B01FD
:101A3000FB01808591850197918780872091110115
:101A4000322F377F3093110123FF18C084E19EE1CC
:101A50000E94B223C3010F90DF91CF911F910F918C
:101A6000FF90EF90DF90CF90BF90AF909F908F90BE
:101A70007F906F905F904F900C94D61E322F377BE3
:101A80003093110126FF0EC08FEF9FEFFB0191876E
:101A9000808781E0F301828385EC9CE0F3019683EB
:101AA000858375C097FF12C0FB018285882319F0DA
:101AB00085E090E0ECCF83E090E0FB0191878087A8
:101AC00087818F5F878384E00E94301EF2018585C5
:101AD0008F3F01F1882341F0813019F48BE496E0C7
:101AE00005C08EE696E002C080E196E01F92812C50
:101AF000912CA12C20E4B22EC12CD12C760100E037
:101B000010E020EC31E440E050E060E872E40E9434
:101B1000A2210F9080916308833031F486EE90E02B
:101B20009093050180930401F20115819681E3846D
:101B3000F48400E0F2018781081704F5F70144916D
:101B400041110BC0F2018285811118C08CE390E035
:101B50009187808781E0828711C04A3019F4965FAF
:101B600016E008C0692F812F99830E943018180F42
:101B70000F5F9981FFEFEF1AFF0ADCCF80E091E061
:101B8000909305018093040181E0F30182830F901B
:101B9000DF91CF911F910F91FF90EF90DF90CF9049
:101BA000BF90AF909F908F907F906F905F904F907D
:101BB00008952F923F924F925F926F927F928F92F1
:101BC0009F92AF92BF92CF92DF92EF92FF920F93CC
:101BD0001F93CF93DF9300D000D0CDB7DEB7F09046
:101BE000200120916308243011F080E0BCC0E62E73
:101BF0008C010E9498201C010097B9F3DC015C96CF
:101C00008C915C97887F82605C968C93B2E0EB1637
:101C100029F096ECA92E91E0B92E04C089E2A82EF5
:101C200082E0B82E6F2D70E08AE590E00E941037B8
:101C3000072E000C880B990B0E9424356B017C0148
:101C4000F101B382A28280E091E0978F868F81E0DC
:101C50000E94301E20E030E040E051E4D8011496AC
:101C60006D917D918D919C9117970E9491332B01DD
:101C70003C01F101648375838683978320E030E023
:101C800040E051E4D80118966D917D918D919C9121
:101C90001B970E9491334B015C01F10160877187B2
:101CA00082879387D8011C968D919D910D90BC9150
:101CB000A02D89839A83AB83BC8384879587A6876D
:101CC000B787A30192016091340170913501809131
:101CD0003601909137010E949133A70196010E942D
:101CE0007A34D10150966D937D938D939C93539745
:101CF000A50194016091260170912701809128012E
:101D0000909129010E949133A70196010E947A3493
:101D1000F101648B758B868B978B209156013091E6
:101D20005701409158015091590169817A818B8105
:101D30009C810E949133A70196010E947A349B01F5
:101D4000AC0160911C0170911D0180911E01909168
:101D50001F010E949133D10158966D937D938D930D
:101D60009C935B9781E00F900F900F900F90DF9105
:101D7000CF911F910F91FF90EF90DF90CF90BF9088
:101D8000AF909F908F907F906F905F904F903F901B
:101D90002F9008958F929F92AF92BF92DF92EF9211
:101DA000FF920F931F93CF93DF937C01EB018C8DF8
:101DB00085FF41C020910C0130910D012150310966
:101DC00030930D0120930C01982F9F7D9C8F233021
:101DD0003105F0F480718C8F1F8E1E8E20E030E074
:101DE00040E450E460911C0170911D0180911E013E
:101DF00090911F010E949133688F798F8A8F9B8FFA
:101E000081E0F70182838FE591E19683858334C277
:101E10001B821A8280910E01813009F048C081E056
:101E200090E02E8D3F8D2130310511F480E090E05F
:101E30009F8F8E8F3CC090910E01923009F419C291
:101E40009330C9F12DE331E03B832A830E8D1F8D42
:101E5000D0902001913009F0EEC020E030E040E861
:101E600053E460915601709157018091580190910F
:101E700059010E94923320E030E040E251E40E9498
:101E800091336C877D878E879F8788A199A10130C8
:101E90001105A1F42D2D30E02B5F3F4F820F931FD2
:101EA00099A388A38D8D81508D8F181664F481E0DD
:101EB000F7018283E1C12BE931E0C6CF2BEF3FEF81
:101EC0002D193109EBCF62E0CE010E94D90D80912E
:101ED000210110912001853118F488E2811B01C095
:101EE0008AE08D8F20913401309135014091360187
:101EF000509137016C817D818E819F810E94913349
:101F00004B015C0120E030E046E953EC0E94703464
:101F100087FF0DC0212F30E0265F3F4F032E000CBE
:101F2000440B550B63E070E080E090E028C020E0B7
:101F300030E046E953E4C501B4010E943A36181670
:101F40006CF426EF3FEF211B3109032E000C440BEC
:101F5000550B6DEF7FEF8FEF9FEF11C0812F90E05A
:101F60009C01265F3F4F032E000C440B550B66EF80
:101F70007FEF681B790B072E000C880B990B0E94D2
:101F8000AD1C0E942435688B798B8A8B9B8B2091AA
:101F9000260130912701409128015091290168853F
:101FA00079858A859B850E9491334B015C0120E0F5
:101FB00030E046E953EC0E9470341091200187FF15
:101FC0000DC0212F30E0265F3F4F032E000C440B45
:101FD000550B63E070E080E090E028C020E030E046
:101FE00046E953E4C501B4010E943A3618166CF470
:101FF00026EF3FEF211B3109032E000C440B550B3C
:102000006DEF7FEF8FEF9FEF11C0812F90E09C016C
:10201000265F3F4F032E000C440B550B66EF7FEFFE
:10202000681B790B072E000C880B990B0E94AD1CC6
:102030000E94243519C1923009F0B3C087FF2DC02A
:102040000D1911091F8F0E8F17FF23C080902601D5
:1020500090902701A0902801B09029016CE271E0D6
:1020600080E090E00E94891C6659710981099109FC
:102070000E9424359B01AC01C501B4010E9492333A
:10208000688779878A879B871F8E1E8E8C8D8F77B6
:102090002FC088A199A10C9730C00D0D111D1F8F65
:1020A0000E8F053B110534F1809026019090270199
:1020B000A0902801B09029016CE271E080E090E0EE
:1020C0000E94891C66597109810991090E94243571
:1020D0009B01AC01C501B4010E94923368877987E6
:1020E0008A879B8784EB90E09F8F8E8F8C8D806892
:1020F0008C8F05C088A199A10C9699A388A36E8D99
:102100007F8D072E000C880B990B0E9424352BED38
:102110003FE049E450E40E94473620E030E044E3E9
:1021200053E40E947A344B015C010E94753420E034
:1021300030E040E054E40E9447366C837D838E8318
:102140009F83C501B4010E94B43620E030E040E036
:1021500054E40E9447369B01AC0160915601709196
:10216000570180915801909159010E9492336C87D8
:102170007D878E879F878D8D81508D8F18160CF4EB
:1021800096CE80912101853128F49091200182E33F
:10219000891B01C084E18D8F62E0CE010E94D90DC0
:1021A00086CE87FF0EC00D1911091F8F0E8F17FFE6
:1021B0001AC01F8E1E8ECE010E94400B8C8D8F7711
:1021C00011C00D0D111D0B3511051CF41F8F0E8F45
:1021D0000AC08AE590E09F8F8E8FCE010E94400B4F
:1021E0008C8D80688C8F8D8D81508D8F18160CF49E
:1021F0005ECE62E0CE010E94D90D80912101853131
:1022000028F49091200182E3891B01C084E18D8F25
:102210006EE070E080E090E00E94891C67507109D8
:10222000810991090E9424359B01AC016889798953
:102230008A899B890E949233688B798B8A8B9B8BCE
:102240006EE070E080E090E00E94891C67507109A8
:10225000810991090E9424359B01AC016C897D891B
:102260008E899F890E9492336C8B7D8B8E8B9F8B86
:102270001ECE28E731E0E8CDDF91CF911F910F917D
:10228000FF90EF90DF90BF90AF909F908F90089558
:10229000CF93DF93E0912401F0912501309761F015
:1022A000D081C181848D8770823019F4CF010E9462
:1022B000A21EED2FFC2FF2CFDF91CF9108950F9347
:1022C0001F93CF93DF938C01EB018C8D80618C8FFA
:1022D0008E8D9F8D01969F8F8E8F0E9448118E8DBF
:1022E0009F8DCB9704F185E08093630881E4809310
:1022F000220180E090E0A0ECB0E480931C01909378
:102300001D01A0931E01B0931F0189E00E945C1D76
:1023100086E29AE10E94B223C801DF91CF911F911A
:102320000F910C94D61E81E0F80182838FE591E134
:1023300096838583DF91CF911F910F9108958F929E
:102340009F92AF92BF92CF92DF92EF92FF92CF9384
:10235000DF93EC01209156013091570140915801D3
:10236000509159016C857D858E859F850E949133A2
:102370006B017C0120E030E0A9010E943A3618167A
:1023800024F0F7FAF094F7F8F094888C998CAA8CE2
:10239000BB8C20E030E0A901C501B4010E943A36AF
:1023A000181624F0B7FAB094B7F8B094A5019401C8
:1023B000C701B6010E94703487FF5EC020913401CE
:1023C0003091350140913601509137016C817D810A
:1023D0008E819F810E9491336B017C0120E030E06F
:1023E000A9010E943A3618165CF420E030E040E87B
:1023F00052E4C701B6010E94703487FF3DC00AC095
:1024000020E030E040E852ECC701B6010E943A36C5
:10241000181694F52091260130912701409128014A
:1024200050912901688579858A859B850E94913321
:102430006B017C0120E030E0A9010E943A361816B9
:102440006CF420E030E040E852E4C701B6010E949D
:102450007034C82FCC1FCC27CC1F0CC0C1E020E0AB
:1024600030E040E852ECC701B6010E943A36181637
:102470000CF0C0E08C2F01C080E0DF91CF91FF9085
:10248000EF90DF90CF90BF90AF909F908F90089586
:102490008F929F92AF92BF92CF92DF92EF92FF9274
:1024A0000F931F93CF93DF938C01EB019C8D95FFCE
:1024B00002C09F7D9C8FCE010E949F11882309F44A
:1024C00045C080916308843019F48EE10E948F1E0C
:1024D00020E030E040E050E460911C0170911D016B
:1024E00080911E0190911F010E949233688F798F15
:1024F0008A8F9B8F20E030E040E251E460915601EA
:102500007091570180915801909159010E94923326
:102510006C877D878E879F8760E170E080E090E028
:102520000E94891C28E0C22ED12CE12CF12CA7019D
:102530009601261B370B480B590BCA01B9010E94A3
:102540002435688B798B8A8B9B8B56C08E8D9F8DA3
:1025500020E030E040E854E418161906ACF460912D
:1025600034017091350180913601909137010E94BC
:1025700092339B01AC016C817D818E819F810E9491
:102580003A361816ACF453C060913401709135019D
:1025900080913601909137010E9491339B01AC01EB
:1025A0006C817D818E819F810E94703487FD3FC048
:1025B000CC84DD84EE84FF84809056019090570196
:1025C000A0905801B0905901A5019401C701B6012E
:1025D0000E94703487FD2BC020E030E040E454E4DA
:1025E000C501B4010E9492339B01AC01C701B60141
:1025F0000E943A361816DCF088A199A1409699A35A
:1026000088A320E030E040E05FE360911601709124
:10261000170180911801909119010E9447366C8B27
:102620007D8B8E8B9F8B81E0F801828311C01B8292
:102630001A826CE370E080E090E00E94891C625E88
:102640006D8F81E0F801828381EF9BE09683858323
:10265000DF91CF911F910F91FF90EF90DF90CF907E
:10266000BF90AF909F908F900895CF93DF93E091AC
:102670002401F0912501309761F0D081C181848DD2
:102680008770813019F4CF010E94A21EED2FFC2F1C
:10269000F2CF10922301DF91CF9108952091210173
:1026A000822F837051F0822F63E00E94E2369923DB
:1026B00031F020FF06C081E0089580E0089585E0B4
:1026C000089583E00895FC01948D20A131A196FF27
:1026D0000CC02850310931A320A37195619571096F
:1026E000261737075CF49F7B08C0285F3F4F31A354
:1026F00020A36217730714F49064948F0895FC016B
:10270000948D892F807295FF0AC0809122018F5F7E
:10271000809322019071948F178E168E81E0089518
:102720000E9448110E9435130E94AC1F8AEC93E16D
:102730000E94B2238AEC93E10E94B2238AEC93E1D7
:102740000E94B22380912101843040F081ED9BE012
:102750000E94B22381ED9BE00C94B22308950F9365
:102760001F93CF93DF93EC018B016EE170E080E06B
:1027700090E00E94891C9CE3960FF801958F81E000
:102780008A8388E094E19E838D83DF91CF911F91AE
:102790000F9108950C94AF13EF92FF920F931F9334
:1027A000CF93DF937C01EB018C8D80618C8F0E8D3C
:1027B0001F8D0F5F1F4F1F8F0E8F2091560130917D
:1027C000570140915801509159016C857D858E8546
:1027D0009F850E94703418168CF40B33110574F425
:1027E00081E0F70182838CEC93E196838583DF910E
:1027F000CF911F910F91FF90EF900895BE01C701F7
:10280000DF91CF911F910F91FF90EF900C94AF1338
:10281000CF92DF92EF92FF920F931F93CF93DF93AC
:102820008C01EB018D8D18160CF47EC1809163082C
:10283000843009F079C18C8D887C8C8F6091200167
:1028400070E08CE390E00E9410377B019B01770FD2
:10285000440B550B61E070E080E090E00E94AD1CFD
:10286000E60EED8E19A218A220912101243020F449
:1028700030E040E050E004C023E030E040E050E0D1
:1028800060E070E0CB010E94AD1C613071058105F4
:10289000910509F47EC0623071058105910509F446
:1028A000F3C0672B682B692B09F040C18EE696E0D8
:1028B0009B838A83C0903401D0903501E09036012B
:1028C000F090370160E072E080E090E00E94891CA7
:1028D0007150810991090E9424359B01AC01C70107
:1028E000B6010E9492336C837D838E839F83C09058
:1028F0002601D0902701E0902801F090290160E0A6
:1029000072E080E090E00E94891C71508109910979
:102910000E9424359B01AC01C701B6010E9492338D
:10292000688779878A879B8720E030E040E854E415
:102930006091560170915701809158019091590111
:102940000E9492336C877D878E879F8780E090E01E
:10295000A0ECB0EC888F998FAA8FBB8F1C8A1D8A40
:102960001E8A1F8A188A198A1A8A1B8A64E670E0EE
:1029700080E090E00E94891CDC01CB01C297A10994
:10298000B10999A388A381E0F80182838CEB96E1D9
:1029900078C08BE496E09B838A8320E030E040E0BF
:1029A00053E460913401709135018091360190912A
:1029B00037010E9492336B017C016FE770E080E089
:1029C00090E00E94891C0E9424359B01AC01C70144
:1029D000B6010E9491336C837D838E839F8320E0B8
:1029E00030E040E053E4609126017091270180912E
:1029F0002801909129010E9492336B017C016FE7BD
:102A000070E080E090E00E94891C0E9424359B01C8
:102A1000AC01C701B6010E949133688779878A8724
:102A20009B8720E030E040EF51E4609156017091C7
:102A3000570180915801909159010E9491336C8700
:102A40007D878E879F876091210170E080E090E014
:102A50000E94243520E030E040EE50E40E949233A2
:102A6000688F798F8A8F9B8F1C8A1D8A1E8A1F8A86
:102A7000188A198A1A8A1B8A81E0F80182838FEEEC
:102A800097E19683858352C080E196E09B838A8399
:102A90000E940C3360FD05C06BED7FE089EC90E493
:102AA00003C060E070E0CB01C12CD12C20E8E22E05
:102AB00023E4F22ECC82DD82EE82FF820E94B436C5
:102AC000A70196010E9447369B01AC016091560117
:102AD0007091570180915801909159010E94923351
:102AE0006C877D878E879F87809126019091270133
:102AF000A0912801B091290188879987AA87BB876F
:102B0000188E198E1A8E1B8E1C8A1D8A1E8A1F8A89
:102B1000188A198A1A8A1B8A1F8E1E8E81E0F80174
:102B2000828381E096E1ADCF81E08D8F8D8D8150E4
:102B30008D8F81E0F8018283DF91CF911F910F91FA
:102B4000FF90EF90DF90CF9008950F931F93CF9356
:102B5000DF93FC01858D9FEF980F958F19160CF46C
:102B600049C0EF0120E030E0A901609112017091AD
:102B7000130180911401909115010E94703481110C
:102B80000FC020E030E0A90160911601709117019B
:102B900080911801909119010E947034882319F0D6
:102BA00081E08D8F29C065E070E080E090E00E94B8
:102BB000891C672B682B692B11F462E001C061E06E
:102BC000CE010E94D90D882359F36091200170E055
:102BD0008CE390E00E9410378B019B01770F440B30
:102BE000550B61E070E080E090E00E94AD1C060FA4
:102BF0000D8F02C08250858FDF91CF911F910F9171
:102C000008958F929F92AF92BF92CF92DF92EF92F0
:102C1000FF920F931F93CF93DF938C01EB01CB01B6
:102C20000E947F13882341F081E0F80182838CECBD
:102C300093E19683858393C0CE010E94A5159C8D58
:102C4000809120012E8D3F8D97FF0EC0281B3109EA
:102C50003F8F2E8F37FF04C01F8E1E8E9F7710C0B0
:102C600088A199A10C9711C0280F311D3F8F2E8F7D
:102C7000253B31053CF024EB30E03F8F2E8F9068F0
:102C80009C8F05C088A199A10C9699A388A36E8DED
:102C90007F8D072E000C880B990B0E9424352BED9D
:102CA0003FE049E450E40E94473620E030E044E34E
:102CB00053E40E947A346B017C018090260190904D
:102CC0002701A0902801B0902901288539854A85DF
:102CD0005B85C501B4010E943A3618162CF080E0DD
:102CE00090E0A0E0B0E404C080E090E0A0E0B0ECB0
:102CF0008C8B9D8BAE8BBF8B88869986AA86BB8674
:102D0000C701B6010E94753420E030E040E853E48A
:102D10000E9447366C837D838E839F8380916308F6
:102D20008430D1F4C701B6010E94B43620E030E00F
:102D300040E853E40E9447369B01AC016091560184
:102D40007091570180915801909159010E949233DE
:102D50006C877D878E879F8781E0F8018283DF9172
:102D6000CF911F910F91FF90EF90DF90CF90BF9088
:102D7000AF909F908F900895CF92DF92EF92FF9245
:102D80000F931F93CF93DF938C01EB01209156019A
:102D90003091570140915801509159016C857D85C2
:102DA0008E859F850E947034181664F0BE01C8019C
:102DB000DF91CF911F910F91FF90EF90DF90CF9017
:102DC0000C94AF13CE010E947F13882331F081E071
:102DD000F80182838CEC93E134C0CE010E94A515EA
:102DE00088A199A1089699A388A3209156013091B2
:102DF000570140915801509159016C857D858E8510
:102E00009F850E9491336B017C0160E071E080E05E
:102E100090E00E94891C7F5F8F4F9F4F0E94243556
:102E20009B01AC01C701B6010E94703487FF0CC042
:102E30008FEF9FEF9F8F8E8F81E0F801828380E379
:102E400097E19683858303C081E0F8018283DF9157
:102E5000CF911F910F91FF90EF90DF90CF90089549
:102E60008F929F92AF92BF92CF92DF92EF92FF929A
:102E70000F931F93CF93DF938C01EB018091630835
:102E80006E8D7F8D843029F083E0660F771F8A95E1
:102E9000E1F7072E000C880B990B0E9424359B014B
:102EA000AC01688D798D8A8D9B8D0E949233688FDD
:102EB000798F8A8F9B8FC888D988EA88FB8820E021
:102EC00030E0A901C701B6010E943A3618162CF06D
:102ED0002DEC3CEC4CEC5DEB04C02DEC3CEC4CECF4
:102EE0005DE3C701B6010E949233688B798B8A8BB0
:102EF0009B8BCC88DD88EE88FF8820E030E0A9013C
:102F0000C701B6010E943A3618162CF02DEC3CECA5
:102F10004CEC5DEB04C02DEC3CEC4CEC5DE3C701EC
:102F2000B6010E9492336C8B7D8B8E8B9F8BCC84F1
:102F3000DD84EE84FF848090560190905701A0902C
:102F40005801B0905901A5019401C701B6010E9432
:102F5000703418163CF5A5019401C701B6010E9412
:102F6000913320E030E040E854E40E943A361816ED
:102F7000CCF0CE010E947F13882341F081E0F8015C
:102F800082838CEC93E1968385831CC06DE270E0B4
:102F9000CE010E946313CE010E94A51581E0F801C5
:102FA000828310C0BE01C801DF91CF911F910F91A4
:102FB000FF90EF90DF90CF90BF90AF909F908F9059
:102FC0000C94AF13DF91CF911F910F91FF90EF9071
:102FD000DF90CF90BF90AF909F908F9008950F9308
:102FE0001F93CF93DF93EC018B0120915601309119
:102FF00057014091580150915901FB016485758535
:10300000868597850E94913320E030E040E054E4CB
:103010000E943A3618164CF481E090E0F801978F40
:10302000868F8A8380E397E109C0C8010E947F13DD
:10303000882339F081E08A838CEC93E19E838D8331
:103040000AC06FE070E0C8010E946313C8010E94CB
:10305000A51581E08A83DF91CF911F910F9108958B
:103060002F923F924F925F926F927F928F929F9298
:10307000AF92BF92CF92DF92EF92FF920F931F9386
:10308000CF93DF93CDB7DEB763970FB6F894DEBF6B
:103090000FBECDBF782E062F142FC0900401D09004
:1030A00005016D2D772767FD7A95072E000C880B9B
:1030B000990B0E9424354B015C01DD24B601DD0C27
:1030C000880B990B0E94243520E030E040E85BE358
:1030D0000E9447369B01AC01C501B4010E949233A6
:1030E0006B017C01812F110F990B0E948933880F8E
:1030F000991FAC014F5A594FFA012591349121156E
:10310000310521F520E030E040E151E4C701B6018E
:103110000E9447360E94EC34862F63960FB6F894CF
:10312000DEBF0FBECDBFDF91CF911F910F91FF90FA
:10313000EF90DF90CF90BF90AF909F908F907F9057
:103140006F905F904F903F902F900895F9013490C9
:1031500010E0802F000F990BAA0BBB0B8A879B876F
:10316000AC87BD87872D770C990BAA0BBB0B8E877D
:103170009F87A88BB98BC90104969B8B8A8B1315EB
:103180000CF0C0CFF90131960491319694919D8352
:103190003196A491A983EA89FB8924906A857B856D
:1031A0008C859D850E9424352B013C016E857F8591
:1031B000888999890E9424354B015C01622D220C7B
:1031C000770B880B990B0E942435A70196010E946A
:1031D00047369B01AC01C301B2010E9492330E94A9
:1031E000EC346E837F8388879987F9816F2FFF0F77
:1031F000770B880B990B0E942435A70196010E943A
:1032000047369B01AC01C501B4010E9492330E9474
:10321000EC3469837A838B839C832D81622F220F08
:10322000770B880B990B0E942435A70196010E9409
:1032300047369B01AC01C301B2010E9492330E9448
:10324000EC342B013C01602F000F770B880B990B9E
:103250000E942435A70196010E9447369B01AC01CC
:10326000C501B4010E9492330E94EC34DC01CB0111
:103270002E813F8149815A81B2010E94D0201F5F77
:103280002A893B8978CF3F924F925F926F927F92CB
:103290008F929F92AF92BF92CF92DF92EF92FF9266
:1032A0000F931F93CF93DF93CDB7DEB7A1970FB6E0
:1032B000F894DEBF0FBECDBF3DA80EA9CFA8D8ACF5
:1032C0005E0189E3A80EB11C132D8AE0482E512C13
:1032D000612C712C7601FFEFEF1AFF0AF601449181
:1032E000442309F448C0453209F03EC092E0C90EBB
:1032F000D11CF7014491442391F0443679F54501FE
:10330000F2E08F0E911CF50120813181032E000C1B
:10331000440B550B19A2CE0181967C0103C0812F6D
:1033200083192BC0CA01B901A30192010E9426335F
:10333000605DF70162937F0121153105410551055B
:1033400089F7F70141917F01442331F0602F812FEC
:103350000E943018180FF5CF5401BCCF602F812F79
:103360000E943018180FB6CF602F812F0E9430189E
:10337000180F6701AFCF832D811BA1960FB6F8946C
:10338000DEBF0FBECDBFDF91CF911F910F91FF9098
:10339000EF90DF90CF90BF90AF909F908F907F90F5
:1033A0006F905F904F903F900895CF93DF93EC0123
:1033B0009091220191509093220191111AC084E0C2
:1033C0008093630880E090E0A0ECB0E480931C015F
:1033D00090931D01A0931E01B0931F010E94AC1F8A
:1033E0008CEE99E00E94B223CE01DF91CF910C9434
:1033F000D61E8EEB90E0909305018093040181E24C
:1034000097E09F938F9385E08F9383E28F930E9441
:103410004319909101010F900F900F900F909436E7
:103420001CF49F5F909301019091000194361CF46D
:103430009F5F9093000180E091E09093050180935D
:10344000040181E08A83DF91CF910895CF93DF93C8
:10345000EC01809122018150809322012091210171
:1034600081112CC084E0809363081092220180E0D7
:1034700090E0A0ECB0E480931C0190931D01A09318
:103480001E01B0931F012F5F20932101237029F4A7
:10349000809120018F5F809320010E944E130E9433
:1034A0005C1D0E9448110E9435130E94AC1F0E94AF
:1034B0009013CE01DF91CF910C94D61E88EC90E052
:1034C000909305018093040130E02F5F3F4F3F93BD
:1034D0002F9383E197E09F938F9385E08F938AE109
:1034E0008F930E94431980E091E0909305018093AF
:1034F0000401809101010F900F900F900F900F9099
:103500000F9084361CF48F5F80930101909100012D
:1035100094361CF49F5F9093000181E08A83DF91D1
:10352000CF9108952F923F924F925F926F927F9228
:103530008F929F92AF92BF92CF92DF92EF92FF92C3
:103540000F931F93CF93DF93CDB7DEB7A0970FB63E
:10355000F894DEBF0FBECDBF8F87D62ECA01B9014A
:103560002AED3FE049E450E40E94473620E030E095
:1035700044E353E40E947A344B015C010E947534A9
:1035800069837A838B839C83C501B4010E94B4361E
:103590006D837E838F839887E0900401F09005010E
:1035A0006F2D772767FD7A95072E000C880B990BF6
:1035B0000E9424354B015C01B7017727072E000CD0
:1035C000880B990B0E94243520E030E040E85BE353
:1035D0000E9447369B01AC01C501B4010E949233A1
:1035E0004B015C010F8F18A36F858D2DDD0C990B9E
:1035F000AA0BBB0B8A8F9B8FAC8FBD8FEF8DF8A171
:103600008491882309F4F0C0082E000C990B6E8F6A
:103610000E948933880F991F9C012F5A394FF90155
:10362000259034906E8DC62E660FDD08EE08FF08DB
:103630002114310409F4BCC0F101F491F88B00E0CD
:10364000C10104969A878987988909170CF0A5C04B
:10365000F10131962491298BC701B6010E942435CE
:103660006B877C878D879E87F101329614916A8DD6
:103670007B8D8C8D9D8D0E9424352B013C01F101A9
:1036800033962490E985FA856491062E000C770B19
:10369000880B990B0E942435A50194010E9447369E
:1036A000A30192010E949233A30192010E949133DF
:1036B0002D813E814F8158850E94473629813A816C
:1036C0004B815C810E949233A30192010E9492334C
:1036D0000E94EC346A8B7B8B8C8B9D8B622D220C31
:1036E000770B880B990B0E942435A50194010E9449
:1036F00047362B853C854D855E850E9492330E941E
:10370000EC346E8B7F8B888F998F612F110F770B25
:10371000880B990B0E942435A50194010E9447361D
:10372000A30192010E949233A30192010E9491335E
:103730002D813E814F8158850E94473629813A81EB
:103740004B815C810E949233A30192010E949233CB
:103750000E94EC342B013C01F9896F2FFF0F770B8E
:10376000880B990B0E942435A50194010E944736CD
:103770002B853C854D855E850E9492330E94EC34FA
:10378000DC01CB012A893B894E895F89B2010E9405
:10379000D0200F5F29843A8453CFC701B6010E941D
:1037A00024356B017C0120E030E040E151E40AC0A7
:1037B000C701B6010E9424356B017C0120E030E096
:1037C00040EC50E4C501B4010E9447369B01AC01B6
:1037D000C701B6010E9492330E94EC34AF8DB8A1AC
:1037E0001196B8A3AF8F0ACF862FAF858A1BA096FC
:1037F0000FB6F894DEBF0FBECDBFDF91CF911F9102
:103800000F91FF90EF90DF90CF90BF90AF909F907F
:103810008F907F906F905F904F903F902F90089582
:10382000EF92FF920F931F93CF93DF937C01EB01F5
:103830002C813D814E815F810EE217E063E28EE1D3
:103840000E94921A20E030E040E451E46C817D81D6
:103850008E819F810E9492336C837D838E839F83B0
:103860002885398522309CF581E0809320011092D3
:1038700022018093210184E0809363088FEF80937D
:1038800002010E941F2A0E944E130E945C1D80E0CC
:1038900090E0A0ECB0E480931C0190931D01A093F4
:1038A0001E01B0931F0184E6809300018093010103
:1038B0001092230110921B010E949013C701DF9107
:1038C000CF911F910F91FF90EF900C94D61E215035
:1038D00031093987288781E0F7018283DF91CF9111
:1038E0001F910F91FF90EF900895FB0110926308D4
:1038F00028E2248328ED258320E330E037832683E4
:10390000108621E0FC01228324EF3FE136832583EA
:103910000895CF93DF9300D000D0CDB7DEB7611507
:1039200071058105910579F09B01AC0169833A83AA
:103930004B835C830E940C3329813A814B815C81EB
:103940000E94263303C060E070E0CB010F900F901F
:103950000F900F90DF91CF910895CF92DF92EF9269
:10396000FF920F931F93621773078407950784F4E0
:1039700089019A016B017C01C901B8016C197D09AB
:103980008E099F090E94891C6C0D7D1D8E1D9F1D37
:103990001F910F91FF90EF90DF90CF9008955C986A
:1039A0008EBD00000DB407FEFDCF5C9A0895AF9266
:1039B000BF92CF92DF92EF92FF920F931F93CF931C
:1039C000DF93EC0160E072E080E090E00E94891CEF
:1039D0008E01000F111F9801285C3E4F5901C12C28
:1039E000D12C7601D394A7019601261B370B480BE7
:1039F000590BCA01B9010E9424352091340130913C
:103A0000350140913601509137010E9492330E9456
:103A1000EC34F5017183608360E072E080E090E057
:103A20000E94891C065D1E4FA7019601261B370BBD
:103A3000480B590BCA01B9010E9424352091260177
:103A40003091270140912801509129010E94923321
:103A50000E94EC34F80171836083C0905601D090CD
:103A60005701E0905801F090590168E371E080E05F
:103A700090E00E94891CCC0FDD1FCC0FDD1FCE5BB8
:103A8000DE4F68537F4F8F4F9F4F0E9424359B011D
:103A9000AC01C701B6010E949233688379838A839F
:103AA0009B83DF91CF911F910F91FF90EF90DF905B
:103AB000CF90BF90AF9008956F927F928F929F9218
:103AC000AF92BF92CF92DF92EF92FF920F931F932C
:103AD000CF93DF9390910201981709F46AC0F82EF2
:103AE000E82FEE0FFF0BEA5CFE4EC591D4910E94C9
:103AF0001F2AD093D803C093D7038091DA03806F35
:103B00008093DA0389E18093D9038FE4809354048E
:103B1000FE0185919491282F227081FD292F80FF2D
:103B200007C0FE01E20FF11DE20FF11D339602C046
:103B3000E0E0F0E0EF010BED13E0C12CD12C8EE1C1
:103B4000682E90E8792E2FE7822E99249A94FE0110
:103B5000E490F80184899589262D11922A95E9F738
:103B6000F601E552FC4F5F01738E8282938AF80161
:103B7000958B848B6E2D8091D7039091D8030E94F2
:103B8000E826F80197838683F501E0862196FEE119
:103B9000CF0ED11C025E1F4F28E7C216D104B9F622
:103BA00040E050E064E077E280E00E94BE26F092C0
:103BB0000201DF91CF911F910F91FF90EF90DF9065
:103BC000CF90BF90AF909F908F907F906F9008950F
:103BD0001F93CF93DF93EC0111E01093630880E013
:103BE00090E0A4EBB2E4FB0184839583A683B783C2
:103BF00080EF90E09187808780E090E0A0ECB0E4D7
:103C000080931C0190931D01A0931E01B0931F018E
:103C100080E00E945C1D1A838AE09FE19E838D8371
:103C2000DF91CF911F910895CF93DF93EC0181E451
:103C300090E0FB019187808780E090E0A4EBB2E404
:103C400084839583A683B78389E00E945C1D81E00D
:103C50008A8380E19CE19E838D83DF91CF910895DB
:103C60000F931F93CF93DF93C82F80EB93E00E94B5
:103C7000262AEC2FEE0FFF0BE45DFE4E059114910A
:103C800080EB93E00E94262AC0EBD3E081E088839A
:103C900080917C0890917D08A0917E08B0917F086A
:103CA0008BA39CA3ADA3BEA3ECE7F8E01082118226
:103CB0001282138283ED93E090930E0480930D049F
:103CC0001A83098389E18B8380E28C838EE125EB63
:103CD00033E0D9011D928A95E9F780E888A38FE740
:103CE0008F838FEF888FFA8FE98F60E0C8010E9481
:103CF000E8269C878B871D866B8170E080ED97E0BE
:103D00000E94FC36615060935A04AE0163E973E28D
:103D100081E0DF91CF911F910F910C94BE2690917D
:103D20000101981B90930101191624F08AEC9FE180
:103D30000C94B22380911B01816080931B0182E06F
:103D40000C94301E009789F1E0912401F091250137
:103D5000E817F90791F48081918190932501809370
:103D6000240180910F019091100191838083F09341
:103D70001001E0930F010895F9013097B1F020810F
:103D8000318128173907C1F7DC012D913C9111973A
:103D90003183208320910F01309110012D933C93AA
:103DA0009093100180930F0108950895CF93DF93AE
:103DB000EC018B819C81009721F00E94A21E1C8245
:103DC0001B82209721F1E0916408F0916508EC17BF
:103DD000FD0741F488819981909365088093640878
:103DE0000CC0FC01309799F0808191818C179D0760
:103DF000C1F788819981918380838091680890912F
:103E0000690899838883D0936908C0936808DF9113
:103E1000CF9108958F929F92AF92BF92EF92FF92AF
:103E20000F931F93CF93DF937C01EB0180E092E02F
:103E300090930501809304012C813D814E815F8127
:103E400000E511E169E18FE00E94921A20E030E084
:103E500040E251E46C817D818E819F810E9492338A
:103E60004B015C0120E030E84AE454E40E943A3619
:103E700018162CF08C829D82AE82BF8208C080E032
:103E800090E8AAE4B4E48C839D83AE83BF8380E092
:103E900091E0909305018093040128853985215094
:103EA00031093987288737FD08C080911101982F83
:103EB0009F7B9093110186FF11C09091030199237C
:103EC00059F082E08093630881E0911180E0809353
:103ED000030180EB9CE023C083E0F4CF24FF0EC0FD
:103EE0008AE491E19F938F9384E38F938DE28F9384
:103EF0000E9443190F900F900F900F909091110115
:103F0000892F877F93FD07C0892F837F80931101BD
:103F100092FD03C013C08093110184E19EE10E94D1
:103F2000B223C701DF91CF911F910F91FF90EF90C6
:103F3000BF90AF909F908F900C94D61E81E0F701B8
:103F40008283DF91CF911F910F91FF90EF90BF90EF
:103F5000AF909F908F900895CF93DF9380916408E6
:103F600090916508009779F0FC01D081C181209182
:103F70006608309167088217930711F00E94D61ED9
:103F80008D2F9C2FEFCF1092670810926608DF915B
:103F9000CF9108950F931F93CF93DF938C01EB0183
:103FA0000E9448110E9435130E94AC1F86E0809346
:103FB000630819A218A21F8E1E8E84E68D8F1092A0
:103FC000110110921A0181E0F80182838AE390E2E4
:103FD0009683858386EA0E94CF1C87E0DF91CF918C
:103FE0001F910F910C945C1DEF92FF920F93CF9352
:103FF000DF937C01EB018D8185301CF48F5F8D8315
:1040000009C08885811106C08AE590E09F838E8370
:1040100081E0888798856D818C81062E000C770B56
:10402000992311F006E301C00BE220E34CED5FE0C1
:10403000082E000C990B0E944F242E813F812150A5
:1040400031093F832E8337FF0CC088EE9DE10E942B
:10405000B223C701DF91CF910F91FF90EF900C94A5
:10406000D61E81E0F7018283DF91CF910F91FF90FF
:10407000EF900895EF92FF920F931F93CF93DF93EA
:104080007C01EB018D8D81508D8F87FF07C088EEFD
:104090009DE10E94B223C7010E94D61E68A179A1AA
:1040A000645F7F4F79A368A3072E000C880B990BE0
:1040B0000E9424359B01AC010AEC1FE064E18EE113
:1040C0000E94921A80EC90E0909305018093040185
:1040D00020912101822F90E00197293010F02DE0EE
:1040E00001C022E19F938F9387EB9FE09F938F9373
:1040F0008DE28F932F930E94431980E091E090937B
:104100000501809304018E8D9F8D01969F8F8E8F68
:1041100081E0F70182830F900F900F900F900F9026
:104120000F90DF91CF911F910F91FF90EF90089525
:10413000E0910F01F0911001309781F18081918120
:104140009093100180930F0180912401909125019B
:1041500091838083F0932501E093240114861586D2
:10416000168617861086118612861386148215828B
:1041700016821782108E118E128E138E148A158A53
:10418000168A178A108A118A128A138A11A210A21B
:10419000158E178E168E148E13821282CF010895FB
:1041A000AF92BF92CF92DF92EF92FF920F931F9345
:1041B000CF93DF93D901A61BB70BB7FF03C0B1950F
:1041C000A195B109FA01E81BF90BF7FF03C0F195BE
:1041D000E195F109FF24F394EA17FB0714F0F12CA1
:1041E0000AC0F42FE52FA9012F2F3E2FF82FE92F1A
:1041F000CB016F2F7E2F4817590754F4F62FE72F66
:10420000B9012F2F3E2FF82FE92FCA014F2F5E2F14
:10421000EA01C81BD90B8901061B170B17FF03C046
:10422000119501951109FE01D7FD3196F595E79598
:104230006217730714F02FEF01C021E0A0E0F11026
:1042400007C0EE24E394F12CA22E220FBB0840C03D
:10425000EE24E394F12CA22E220FBB084817590735
:104260000CF464C06B0120E8C222CD2849F56C0132
:1042700030ECC322CD2821F5B82FB695B695B6956A
:104280006B01A0E8BA9FC00CD11C1124D601AD5916
:10429000BB4F6C0127E0C222DD24970102C0220F30
:1042A000331FCA94E2F76901DC90CD28CC92E01B61
:1042B000F10BF7FF04C06A0D7B1DEC0FFD1FA1E0A1
:1042C0000196CCCF6C0130E8C322CD2829F00196AD
:1042D00048175907BCF72AC06B01B0ECCB22CD2898
:1042E000B1F7B62FB695B695B6956C0120E8B29F9A
:1042F000C00CD11C1124D601AD59BB4F6B0137E066
:10430000C322DD24970102C0220F331FCA94E2F7B3
:104310006901DC90CD28CC92E01BF10BF7FF04C0C3
:104320006A0D7B1DEC0FFD1FA1E0D1CF8A2FDF911D
:10433000CF911F910F91FF90EF90DF90CF90BF90A2
:10434000AF9008952F923F924F925F926F927F921B
:104350008F929F92AF92BF92CF92DF92EF92FF9295
:104360000F931F93CF93DF93CDB7DEB7A5970FB60B
:10437000F894DEBF0FBECDBF4D8F5E8F6F8F78A3D9
:1043800009A31AA32BA33CA31C0123E0220E311C7A
:10439000FC01329684918DA32AED3FE049E450E47C
:1043A000C701B6010E94473620E030E044E353E401
:1043B0000E947A346B017C010E94B4366D8B7E8B37
:1043C0008F8B988FC701B6010E947534698F7A8FE1
:1043D0008B8F9C8F00E010E02DA102170CF06CC1B8
:1043E00044E050E0B101CE0101960E941D3324E06B
:1043F000220E311C89818987682F880F770B880BE3
:10440000990B0E942435698B7A8B8B8B9C8B2A812C
:104410002D87622F220F770B880B990B0E94243572
:104420002B013C016B81062E000C770B880B990B3E
:104430000E9424356D837E838F8398876C81062E3E
:10444000000C770B880B990B0E9424356B017C01C3
:1044500020E030E0A901C501B4010E947034882336
:1044600041F1A501940169897A898B899C890E940F
:104470007A34698B7A8B8B8B9C8BA5019401C30159
:10448000B2010E947A342B013C01A50194016D8197
:104490007E818F8198850E947A346D837E838F839D
:1044A0009887A5019401C701B6010E947A346B0177
:1044B0007C018AAD882309F456C0298527FD295F30
:1044C000259525952595022E000C330B8AADA82F36
:1044D000880FBB0B0E942A370E94243569877A8790
:1044E0008B879C879B01AC0169897A898B899C8920
:1044F0000E949233698B7A8B8B8B9C8B2D8527FD49
:10450000295F259525952595022E000C330B8AAD44
:10451000A82F880FBB0B0E942A370E9424356D8775
:104520007E878F87988B9B01AC01C301B2010E94EB
:1045300092332B013C0129853A854B855C856D8141
:104540007E818F8198850E9492336D837E838F83D5
:1045500098872D853E854F855889C701B6010E94F1
:1045600092336B017C01298D3A8D4B8D5C8DC70197
:10457000B6010E94473669877A878B879C872D8989
:104580003E894F89588D6D817E818F8198850E94EB
:1045900047369B01AC0169857A858B859C850E9495
:1045A000923329A13AA14BA15CA10E9492330E94AF
:1045B000EC3469877A878B879C87298D3A8D4B8D60
:1045C0005C8D6D817E818F8198850E9447366D83D9
:1045D0007E838F8398872D893E894F89588DC701A7
:1045E000B6010E9447369B01AC016D817E818F81AF
:1045F00098850E9491332D8D3E8D4F8D58A10E943C
:1046000092330E94EC346D837E838F839887298D4B
:104610003A8D4B8D5C8DC301B2010E9447366B0110
:104620007C012D893E894F89588D69897A898B89CA
:104630009C890E9447369B01AC01C701B6010E94CC
:10464000923329A13AA14BA15CA10E9492330E940E
:10465000EC346D877E878F87988B298D3A8D4B8DB3
:104660005C8D69897A898B899C890E9447366B01A8
:104670007C012D893E894F89588DC301B2010E946A
:1046800047369B01AC01C701B6010E9491332D8DC5
:104690003E8D4F8D58A10E9492330E94EC34DC0174
:1046A000CB0129853A854D815E816D857E850E948D
:1046B000D020182B0F5F90CE812FA5960FB6F894BF
:1046C000DEBF0FBECDBFDF91CF911F910F91FF9045
:1046D000EF90DF90CF90BF90AF909F908F907F90A2
:1046E0006F905F904F903F902F9008959C0120789D
:1046F000232BB9F49B01207C232B99F4E4EDFFE0FC
:1047000090E1969FD001A0781124A80F6770E60F62
:10471000F11D8491AD59BB4F9C91892B8C9381E005
:10472000089580E00895CF93DF93EB01AB014B5FD9
:104730005F4F6F5F7F4F88810E94CE276B8170E053
:1047400080ED97E00E94FC36615060935A048C81A2
:10475000807F29F4CE01DF91CF910C94262ADF913E
:10476000CF910895CF93DF93C0916808D0916908E5
:104770002097F1F0288139813093690820936808E7
:10478000E0916608F0916708309739F02081318117
:1047900039832883D183C0830EC02091640830916F
:1047A000650839832883D0936508C093640803C0E3
:1047B00080E090E00BC09E838D831C821B820E9450
:1047C00098209C838B8381E08A83CE01DF91CF91F7
:1047D0000895FC019091630880819230F1F481305A
:1047E00061F0823091F0811139C091878BE592E1BF
:1047F0009087878384E39EE233C0818784E592E1DA
:104800009087878384E399E22BC011868CE492E140
:104810009087878384E395E223C09FEF918782305E
:1048200099F03CF4882369F08130C1F48CE092E186
:1048300013C0843079F05CF0853081F488E591E133
:104840000BC085E292E108C080EE91E105C081EBEA
:1048500091E102C083E891E19087878386E096E04A
:1048600021E023839183828383E090E09583848396
:1048700016820895809163048EBD10926304E4E66D
:10488000F4E0808111920DB407FEFDCF8EBD88E06B
:10489000E336F807B1F70DB407FEFDCF08952F9268
:1048A0003F924F925F926F927F928F929F92AF92C0
:1048B000BF92CF92DF92EF92FF920F931F93CF930D
:1048C000DF9300D000D000D0CDB7DEB74A01A22ED2
:1048D000B12C9C012A0D3B1D37FDB4C080389105D9
:1048E0000CF0B0C09B01200F311D37FDABC0603410
:1048F00071050CF0A7C0AB0177FF04C04427552712
:10490000461B570B477055279B0177FF02C0295F55
:104910003F4FE3E035952795EA95E1F777FF08C02B
:104920002150310968E070E0DB01A41BB50BAD013B
:10493000602F66956695669570E0077011F06F5F61
:104940007F4FDB01A20FB31FBA83A983390176948D
:10495000762C662477946794680E791EC12CD12C2E
:1049600000E010E01301B0E82B0E311C68E070E0AD
:10497000DB01A41BB50BBC83AB8369817A8126174D
:10498000370709F45FC02830310509F45BC02F3FB9
:10499000BFEF3B070CF44BC0B101600F711FDB018F
:1049A000AD59BB4FBE83AD83D801A60DB71DAD5920
:1049B000BB4F7C0160E070E06A157B05C4F5E0E860
:1049C000EE16F104A1F1F7FC26C0FB01EC0DFD1D74
:1049D000E80DF91DE4912F3FFFEF3F0779F14E2ECF
:1049E000042E01C0440C0A94EAF7FC914F2A4C9221
:1049F0004115510581F02730310569F04E2E512CBB
:104A00000B8002C0559447940A94E2F7ED81FE8131
:104A10005080452840826F5F7F4FED81FE81319647
:104A2000FE83ED83FFEFEF1AFF0A1196C5CF2F5FCC
:104A30003F4F00581F4FCA0CDB1C9FCF411551053B
:104A4000E9F6E9CF26960FB6F894DEBF0FBECDBFCC
:104A5000DF91CF911F910F91FF90EF90DF90CF905A
:104A6000BF90AF909F908F907F906F905F904F908E
:104A70003F902F9008953FB7F89480916B089091E4
:104A80006C08A0916D08B0916E0826B5A89B05C072
:104A90002F3F19F00196A11DB11D3FBFBA2FA92FBD
:104AA000982F8827820F911DA11DB11DBC01CD013A
:104AB00042E0660F771F881F991F4A95D1F7089526
:104AC0008F929F92AF92BF92CF92DF92EF92FF921E
:104AD0000E943B254B015C0185E0C82ED12CE12CC6
:104AE000F12C0E943B25DC01CB0188199909AA0908
:104AF000BB09883E9340A105B10558F021E0C21AD8
:104B0000D108E108F10888EE880E83E0981EA11C08
:104B1000B11CC114D104E104F10419F7FF90EF9026
:104B2000DF90CF90BF90AF909F908F9008951F928D
:104B30000F920FB60F9211242F933F938F939F9351
:104B4000AF93BF9380915F0490916004A091610442
:104B5000B091620430916A0823E0230F2D3720F4CE
:104B60000196A11DB11D05C026E8230F0296A11DC7
:104B7000B11D20936A0880935F0490936004A09312
:104B80006104B093620480916B0890916C08A091CD
:104B90006D08B0916E080196A11DB11D80936B0840
:104BA00090936C08A0936D08B0936E08BF91AF917D
:104BB0009F918F913F912F910F900FBE0F901F905B
:104BC00018952F922FB62F93BF93AF930F921F92EA
:104BD000A0E0B2E021E00090860810908708000C69
:104BE000111C17FC022616FC022600928608109261
:104BF000870822270090850811941AF420950194C3
:104C00002F4FA00DB21F20917A0800907008020E5D
:104C10000092700820917B0800907108021E00929B
:104C2000710810907808222701141090790818F064
:104C3000209511942F4FA10DB21F20917E08009056
:104C40007208020E0092720820917F08009073088B
:104C5000021E0092730810907C0822270114109005
:104C60007D0818F0209511942F4FA10DB21F2091AF
:104C7000820800907408020E009274082091830844
:104C800000907508021E0092750810908008222777
:104C900001141090810818F0209511942F4FA10D48
:104CA000B21FB093BF00A093CF0020916F082A9548
:104CB00020936F08222389F428E020936F08BB27F4
:104CC000A0915304A150B040A0935304A091590463
:104CD000A150B040A093590441F41F900F90AF91A0
:104CE000BF912F912FBE2F901895A0910A01A0304F
:104CF000A1F7B0930A0178943F934F935F936F931A
:104D00007F938F939F93EF93FF9311240E949B2691
:104D100010920A01FF91EF919F918F917F916F9176
:104D20005F914F913F911F900F90AF91BF912F9145
:104D30002FBE2F9018950F931F93CF93DF93C3E54A
:104D4000D4E010E00FEF8881EA81FB818F3F21F0F2
:104D5000EF2B51F4088308C0309721F06C817D81DE
:104D6000812F0995898188832696113011F011E0F1
:104D7000EACFDF91CF911F910F91089526E0829F96
:104D8000C0011124FC01ED5AFB4F738362835583EC
:104D90004483672B09F0108280915504909156044A
:104DA000892B31F480915B0490915C04892B59F03C
:104DB00082E08093BF001092CF0091E09093C100F9
:104DC000809371000895109271001092C1000895AF
:104DD000FC012591349121FF0BC0FC01E60FF11D70
:104DE000E60FF11D329625913491820F931F08959D
:104DF00020FF08C0E32FF0E0E491F0E031968E0F41
:104E00009F1F0895019608959F92AF92BF92CF92EF
:104E1000DF92EF92FF920F931F93CF93DF9330EDCA
:104E2000E32E37E0F32E4EE1942ECC24C394D12C04
:104E30000BED13E0C0E0A80167ED73E08C2F0E943A
:104E4000CE276091D90370E0C7010E94FC36615003
:104E500060935404CF5F025E1F4FC43061F78091AE
:104E6000DA03807F09F04BC00EEE13E0C0E0D0E023
:104E7000F80160816F3F59F13197A080B12C80918A
:104E8000D7039091D8030E94E826F501EE0FFF1F8B
:104E9000EE0FFF1F9C9E90019D9E300D1124E20F8E
:104EA000F31FE552FC4F97838683F80170971182B8
:104EB0001082CE010496960102C0220F331F8A95FC
:104EC000E2F7C9019091DA03892B8093DA032196E6
:104ED000025E1F4FC430D10559F68091DA03807FFE
:104EE00009F0A6CFDF91CF911F910F91FF90EF9026
:104EF000DF90CF90BF90AF909F900C941F2ADF91CE
:104F0000CF911F910F91FF90EF90DF90CF90BF90C6
:104F1000AF909F900895CF93DF93DB015496CD918E
:104F2000DC9155971596EC911597E80FEF73F0E02B
:104F3000EE0FFF1FEF59FD4E259134913B832A83DD
:104F4000811102C0198218C056968C9156978823F9
:104F500099F057969C91579758968C91589796FF31
:104F600005C08F7358968C93589706C0807C21F0AB
:104F700012968C9188830FC05496ED91FC915597B1
:104F800011968C91119781835496ED91FC915597D0
:104F900012968C918083DF91CF9108958F929F928A
:104FA000AF92BF92CF92DF92EF92FF920F931F9337
:104FB000CF93DF9300D000D000D0CDB7DEB7982FCD
:104FC0007B018A01FA01A489B5898330F1F4648DEB
:104FD0006623D9F0258D81E0820F858F30E0462F42
:104FE000437050E02417350784F0E62FE695E695E8
:104FF000F0E0EE0FFF1FEF59FD4E2591349113960F
:105000003C932E931297F801158EF80126892223DE
:1050100009F465C0808D4789E82FEF73F0E0642FB5
:105020006F7370E0E617F7070CF456C04078807C89
:105030008034C9F08038B1F1811146C011968C914D
:105040001197022E000C330B280F311D47FD08C0AD
:1050500037FD05C0203831051CF02FE701C020E0E6
:1050600011962C9331C012966D917C911397FB0190
:10507000E20FF11D27FDFA959F0147FD06C0F7FDE0
:1050800006C02115F0E43F072CF4832F05C020E073
:1050900080E002C02FEF8FE312962C9312971396A5
:1050A0008C9312C08C91022E000C330B280F311DF3
:1050B00047FD09C037FD06C02F3F310521F01CF028
:1050C0002FEF01C020E02C93D80158968C9158976F
:1050D000807C58968C9303C08F5FF801808FD80135
:1050E0005B963C915B97232F207E2038B9F18C9101
:1050F0008823A1F15A964C915A97E32FEF71F0E073
:10510000642F6F7170E0E617F70724F43F5F5B963A
:105110003C9324C046FD02C030E401C030E22313BA
:1051200004C045FD0FC020E00FC0F801318D2111F2
:1051300001C032953F703F3011F0830F01C080E015
:10514000205E02C080E020E8B8012D839E830E948B
:105150008B272D81D8015B962C939E819C5F81E0EB
:10516000B82E01C0BB0C9A95EAF7CC24CA94DC2C6B
:10517000E0E8AE2ED80113968D919C91149700977C
:1051800009F042C1F801828924E0829FE00DF11DFF
:1051900011246681778144E050E0CE0101960E949F
:1051A0001D33D80152962C91822F90E04801B4E033
:1051B0002B9F800C911C1124F40166817781AB0137
:1051C0004F5F5F4F57834683E981E03460F4D80135
:1051D000EC93B8018E2F0E948B27F801828D85FFFA
:1051E000C9CF138EC7CFE03640F4F0E0FF97D80167
:1051F0001496FC93EE931397BDCFE03708F040C0B0
:10520000E13679F030F4E03609F0B4CFF8011582D8
:10521000B1CFE336F9F0E43609F0ACCFF801148EE3
:10522000A9CFD40119963C911997332369F03150D5
:1052300019963C93FC013296EE0FFF1FEE0FFF1FF5
:10524000E00FF11F60819BC0222341F02150F80143
:10525000228B90CFD8015B96AC928CCFD70113965E
:105260008C9113978B2513968C93D8015496ED91BE
:10527000FC91559711821496DC92CE9213977ACFB7
:10528000E7FD3CC06E5F7F4FD40117967C936E9311
:1052900016978E2F90E0FC01E057F109E730F105F9
:1052A00008F068CFEA5AFF4F8A810C942437F8013E
:1052B000848F158E5FCFD80115968C935BCFF80144
:1052C0009581890F858356CFD70112968C9352CF43
:1052D000F7019281890F82834DCFD80111968C936B
:1052E00011975496ED91FC915597818343CFF80126
:1052F00082830488F589E02D80833CCF3E2F329550
:1053000037703F5F430F511DD40117965C934E9346
:105310001697EF70E23071F038F4EE2309F449C0CB
:10532000E13009F44AC026CFE430A1F1E53009F4B8
:105330005EC020CF223008F01DCF4A81FC0132969A
:10534000EE0FFF1FEE0FFF1FE00FF11F80814817C8
:1053500009F410CF313011F08B8101C080E02F5F54
:10536000F801228B4801F4E02F9F800C911C11243E
:10537000D40118964C93189719968C93642FF701C3
:10538000808191810E94E826D40117969C938E9388
:105390001697F0CE8A81F801828F313011F08B811F
:1053A00001C08FEFD80159968C9359975B961C9248
:1053B000E1CE8A81F801838BDDCE3130A1F08A8184
:1053C0008295880F880F807CD80158968C935897C7
:1053D0008B8156968C93323011F08C8101C080E025
:1053E000F801878BC7CED80156961C92C3CE8A810E
:1053F00090E0313021F0982F88272B81822B019665
:10540000F80194838383B6CE8F3FBFEF9B0721F0D3
:105410000197F8019483838326960FB6F894DEBF34
:105420000FBECDBFDF91CF911F910F91FF90EF90F5
:10543000DF90CF90BF90AF909F908F90089540E005
:1054400050E060E070E080E00C94BE26CF93DF93E4
:10545000EC0140E050E060E070E081E00E94BE2698
:10546000888190E0DC01AA0FBB1FAA0FBB1FA858C0
:10547000B74F2EE1289FF001299FF00D1124E5522E
:10548000FC4FC489D589488159816A817B814D93BC
:105490005D936D937C931397B58BA48BDF91CF9124
:1054A0000895CF93DF93CDB7DEB762970FB6F89428
:1054B000DEBF0FBECDBF789484B5826084BD84B555
:1054C000816084BD85B5826085BD85B5816085BDFF
:1054D00080916E00816080936E00109281008091B7
:1054E000810082608093810080918100816080933F
:1054F0008100809180008160809380008091910084
:1055000082608093910080919100816080939100EE
:10551000809190008160809390008091C1008460B0
:105520008093C1008091C10082608093C10080910E
:10553000C10081608093C1008091C300816080932D
:10554000C3008091C00082608093C0008091C2003F
:1055500081608093C20080917A00846080937A0099
:1055600080917A00826080937A0080917A008160D5
:1055700080937A0080917A00806880937A0081EC31
:1055800080937C0085B1806F85B9249884B1866E44
:1055900084B95E9A5F988AB1806D8AB9769A6E985E
:1055A00081B3806F81BB899880B38D7080BB80E5AB
:1055B0008CBD81E08DBD0E9460255F9A0E946025B0
:1055C0005E985C98E9EDF1E08DE08E0F94919EBDC0
:1055D00000000DB407FEFDCF31968E13F7CF5C9A15
:1055E00081E88093640081E080936500809164008D
:1055F0008E7F8093640080917A00806480937A002B
:1056000080917A0086FDFCCF00917800109179009E
:105610000E943B2520E030E0980111270027600F11
:10562000711F821F931F611571058105910511F08E
:105630000E941133809164008160809364003E9ADF
:105640003F9A81E080935A01109271001092C1003C
:1056500080E1E8E7F8E0DF011D928A95E9F78CE048
:10566000E3E5F4E0DF011D928A95E9F78FE7809387
:10567000780880937C08809380088093840881E078
:1056800090E090938708809386088AE582BF82E144
:1056900089BD09B400FEFDCF82E48093C00081E0A3
:1056A0008093C30090E49093C4008093BF008FEF79
:1056B0008093D1001092900089E08093910087EE52
:1056C00093E090939900809398001092DA0388E712
:1056D00098E09093F0038093EF038CE798E0909329
:1056E0000E0480930D0480E898E090932C0480933E
:1056F0002B0484E898E090934A04809349040E9424
:105700003A240E943A2400E010E0C8010E94D71C0D
:105710000F5F1F4F05301105C1F790916808809108
:105720006908EBE5F1E03E2F2F2F908381833796B8
:10573000C901B1E0EC38FB07B1F785E891E090933F
:1057400069088093680890910F0180911001ECE83E
:10575000F1E03E2F2F2F90838183B296C90123E081
:10576000EC3AF207B1F78AE893E090931001809346
:105770000F0185E79CE10E94B2232FB7F894809136
:105780005F0490916004A0916104B09162042FBF06
:105790008093AC039093AD03A093AE03B093AF039B
:1057A0002FB7F89480915F0490916004A0916104F8
:1057B000B09162042FBF4091AC035091AD03609152
:1057C000AE037091AF0384179507A607B70758F487
:1057D00083B7817F83BF83B7816083BF889583B799
:1057E0008E7F83BF56C68196A11DB11D8093AC03E9
:1057F0009093AD03A093AE03B093AF032FB18CB1E0
:1058000093B1482F50E04095509540745527E3E000
:1058100055954795EA95E1F7892F90E08095909509
:10582000807199279595879595958795842B2095D7
:10583000207F222E282A10911A01109512211093F0
:10584000110120921A01209112013091130140910F
:1058500014015091150160913401709135018091CE
:105860003601909137010E9492334B015C016093A5
:105870003401709335018093360190933701209164
:105880001601309117014091180150911901609152
:1058900026017091270180912801909129010E9491
:1058A00092336B017C0160932601709327018093F2
:1058B00028019093290140901C0150901D01609097
:1058C0001E0170901F0120915601309157014091A7
:1058D000580150915901C301B2010E94923369836A
:1058E0007A838B839C8360935601709357018093D6
:1058F000580190935901809163089CEF980F923062
:1059000008F049C1843089F01092160110921701F5
:1059100010921801109219011092120110921301A5
:10592000109214011092150136C1812F877F809348
:10593000110113FFB7C026FE03C074EF372E01C05C
:10594000312C25FE02C06CE0362E27FE02C005EF8A
:1059500001C000E024FC0DE010911B012090230108
:1059600035E032150CF498C00E9498209E838D83F8
:10597000892B09F491C023942092230180E00E9496
:10598000301EAD81BE815C968C915C97887F816072
:105990005C968C935C9729813A814B815C811C9643
:1059A0002D933D934D935C931F9720E030E040EEA4
:1059B00051E4C501B40111FF1FC00E949233ED8173
:1059C000FE81648375838683978320E030E040EE18
:1059D00051E4C701B6010E949133AD81BE81189692
:1059E0006D937D938D939C931B9784E190E05F96DC
:1059F0009C938E935E971EC00E949133ED81FE8131
:105A0000648375838683978320E030E040EE51E421
:105A1000C701B6010E949133AD81BE8118966D9386
:105A20007D938D939C931B97ECEEFFEF5F96FC9319
:105A3000EE935E97632D330C770B880B990B0E94C6
:105A40002435AD81BE8150966D937D938D939C934B
:105A50005397602F000F770B880B990B0E9424350A
:105A6000ED81FE81648B758B868B978B20E030E017
:105A700040E751E4C301B2010E949233AD81BE817F
:105A800058966D937D938D939C935B97E6EEF1E032
:105A90001396FC93EE93129790911B0182E0892755
:105AA00080931B0190911A018091000192FF1DC00B
:105AB000181674F420E030E040E451E420931C0117
:105AC00030931D0140931E0150931F0181501DC052
:105AD00020E030E040EC50E420931C0130931D01A5
